:20306200AF82AE83ADF0FC900008EFF0EEA3F0EDA3F0ECA3F090000CE4F0A3F0900000E0E9
:20308200F513A3E0F514A3E0F515A3E0F516900008E0F8A3E0F9A3E0FAA3E0FB900004E024
:2030A200F508A3E0F509A3E0F50AA3E0F50BC003C002C001C000123DB385820CD000D001CF
:2030C200D002D00390000EE50CF0740AB50C02800A740DB50C0280030231BA90000CE0F5DA
:2030E2000DA3E0F50E850D0FF5103395E0F511F512C3E50F98E51099E5119AE5129B40128F
:20310200E513950FE5149510E5159511E5169512502FC003C002C001C000744AC0E0744E8C
:20312200C0E07480C0E0124402158115811581D000D001D002D00390000CE4F0A3F00230C4
:20314200B09013EBE508F0E509A3F0E50AA3F0E50BA3F0850F828510838511F0E512C0035E
:20316200C002C001C000123F2FAC82AD83AEF0FFD000D001D002D003EC4D4E4F70030232CC
:2031820039C003C002C001C000C008C009C00AC00B7488C0E0744EC0E07480C0E0124402DE
:2031A200E58124F9F581D000D001D002D00390000CE4F0A3F00230B0AF0CBF30004012E508
:2031C2000CFF24C6400BE50CFF24D090000EF08025C003C002C001C00074C4C0E0744EC036
:2031E200E07480C0E0124402158115811581D000D001D002D00390000CE0FEA3E0FF90135A
:20320200FCEEF0EFA3F090000AC003C002C001C000124214AE82AF83D000D001D002D003A0
:2032220090000EE0FD7C002EFEEC3FFF90000CEEF0EFA3F00230B0C00DC00E74DEC0E07460
:173242004EC0E07480C0E0124402E58124FBF581850D82850E832254
:204E4A00496E7075742076616C7565206973206F7574206F6620657870656374656420728E
:204E6A00616E67652120547279206120646966666572656E742076616C75650D0A00496EAA
:204E8A007075742076616C7565206973206E6F7420646976697369626C6520627920256486
:204EAA002120547279206120646966666572656E742076616C75650D0A00496E76616C6959
:194ECA006420696E707574206368617261637465720D0A0025640D0A0097
:0330000002300695
:03305F0002300339
:0330030002326036
:20325900438E0C900000229013D5E4F0A3F0901442F0A3F09013D7F0A3F074E5C0E0744EC6
:20327900C0E07480C0E012440215811581158190000074C0F07412A3F0E4A3F0A3F0900080
:20329900047410F0E4A3F0A3F0A3F0900020E4F5F012306285821F858320AC1FAD208C82EF
:2032B9008D83C005C0041240ABAA82AB83D004D005901397EAF0EBA3F0EA4B70187424C0B5
:2032D900E0744FC0E07480C0E0124402158115811581023260901399E51FF0E520A3F090F8
:2032F900139BE4F0A3F08C828D831240ABAC82AD8390139DECF0EDA3F0EC4D70327424C058
:20331900E0744FC0E07480C0E0124402158115811581901397E0FCA3E0FD7B008C828D8374
:203339008BF0123DD8901397E4F0A3F002326090139FE51FF0E520A3F09013A1E4F0A3F024
:203359009013D37402F0E4A3F07440C0E0744FC0E07480C0E01244021581158115817482A6
:20337900C0E0744FC0E07480C0E012440215811581158174AAC0E0744FC0E07480C0E012BC
:20339900440215811581158174D5C0E0744FC0E07480C0E012440215811581158174FBC0E3
:2033B900E0744FC0E07480C0E01244021581158115817422C0E07450C0E07480C0E012447F
:2033D900021581158115819013D9E4F0A3F0A3F0A3F0123DB3AD828D04BC4100402B8D044C
:2033F900EC24A540249013D9E0F5F0A3E042F0A3E042F0A3E045F070109013D97401F0E4F3
:20341900A3F0A3F0A3F00235EDBD2B599013D9E0F5F0A3E042F0A3E042F0A3E045F0702979
:20343900C0057448C0E07450C0E07480C0E0124402158115811581D0059013D97402F0E4A5
:20345900A3F0A3F0A3F00235EDC0057479C0E07450C0E07480C0E012440215811581158112
:20347900D0050235EDBD2D599013D9E0F5F0A3E042F0A3E042F0A3E045F07029C00574982A
:20349900C0E07450C0E07480C0E0124402158115811581D0059013D97403F0E4A3F0A3F09F
:2034B900A3F00235EDC0057479C0E07450C0E07480C0E0124402158115811581D0050235CC
:2034D900EDBD3F599013D9E0F5F0A3E042F0A3E042F0A3E045F07029C00574C4C0E0745034
:2034F900C0E07480C0E0124402158115811581D0059013D97404F0E4A3F0A3F0A3F00235D8
:20351900EDC0057479C0E07450C0E07480C0E0124402158115811581D0050235EDBD0A027F
:203539008003BD0D3A9013D9E0F5F0A3E042F0A3E042F0A3E045F07019C00574CCC0E074E6
:2035590050C0E07480C0E0124402158115811581D0059013D9E4F0A3F0A3F0A3F08075BD24
:203579003D579013D9E0F5F0A3E042F0A3E042F0A3E045F07028C00574C4C0E07450C0E0A2
:203599007480C0E0124402158115811581D0059013D97405F0E4A3F0A3F0A3F08036C00592
:2035B9007479C0E07450C0E07480C0E0124402158115811581D005801BBD401874CFC0E0EB
:2035D9007450C0E07480C0E0124402158115811581023CB59013D9E0F9A3E0FAA3E0FBA3DA
:2035F900E0FCB9010BBA0008BB0005BC0002803FB9020CBA0009BB0006BC00030236BCB95B
:20361900030CBA0009BB0006BC000302381DB9040CBA0009BB0006BC000302395BB9050C7C
:20363900BA0009BB0006BC0003023BDF0233EB90139BE0FBA3E0FCC3EB951FEC6480852083
:20365900F063F08095F05032901397E0FBA3E0FC90139BE0F9A3E0FAE92BF582EA3CF58336
:20367900EDF090139BE0FBA3E0FC0BBB00010C90139BEBF0ECA3F00233EB7C00C005C0042C
:2036990074EDC0E07450C0E07480C0E0124402E58124FBF5819013D9E4F0A3F0A3F0A3F0BC
:2036B9000233EB9000007490F07401A3F0E4A3F0A3F09000047410F0E4A3F0A3F0A3F09006
:2036D9000014E4F5F012306285821D85831E780179007A007B00C3E8940AE99400EA9400DB
:2036F900EB6480948040030237D19013FEE8F0E9A3F0EAA3F0EBA3F0900006E4F5F0C0036F
:20371900C002C001C00012423485821785831885F019F51AD000D001D002D003E5172497ED
:20373900F51BE5183413F51C851B82851C83E0FCA3E0FD4C7072AC1DAD1E8C828D83C003C6
:20375900C002C001C0001240ABAC82AD83D000D001D002D003851B82851C83ECF0EDA3F0CA
:20377900EC4D70177428C0E07451C0E07480C0E0124402158115811581803DE5172497FCB1
:20379900E5183413FD8C828D83A3A3E51DF0E51EA3F08C828D83A3A3A3A3E4F0A3F090132F
:2037B900D5E8F0E9A3F0801008B8000909B900050ABA00010B0236EF9013D5E0F5F0A3E0F0
:2037D90045F060329013D5E0C0E0A3E0C0E0746DC0E07451C0E07480C0E0124402E5812492
:2037F900FBF5819013D3E02401F0A3E03400F09013D5E4F0A3F09013D9E4F0A3F0A3F0A335
:20381900F00233EB900000740AF0E4A3F0A3F0A3F090000404F0E4A3F0A3F0A3F09000002F
:20383900E4F5F0123062AC82AD83EC4D70187490C0E07451C0E07480C0E012440215811543
:2038590081158102394D9013D3E0FAA3E0FB8C008D01C3E89AE964808BF063F08095F040A3
:20387900030239389013FCECF0EDA3F0900006C005C004C003C00212421485821785831874
:20389900D002D003D004D005E5172497F51DE5183413F51E851D82851E83E0F51BA3E0F5EF
:2038B9001CE51B451C6078AE1BA91C7F008E8289838FF0C005C004C003C002123DD8D002EB
:2038D900D003D004D005851D82851E83E4F0A3F0E5172497FEE5183413FF8E828F83A3A342
:2038F900E4F0A3F08E828F83A3A3A3A3F0A3F0C003C002C004C00574B1C0E07451C0E0746B
:2039190080C0E0124402E58124FBF581D002D0031ABAFF011B9013D3EAF0EBA3F0801574B0
:20393900EFC0E07451C0E07480C0E01244021581158115819013D9E4F0A3F0A3F0A3F002C1
:2039590033EB901442E0C0E0A3E0C0E07431C0E07452C0E07480C0E0124402E58124FBF596
:20397900819013D7E0FCA3E0FD901442E0FAA3E0FBEAC39CFCEB9DFDC004C005744FC0E0E3
:203999007452C0E07480C0E0124402E58124FBF581901442E0FCA3E0FD9013D7ECF0EDA399
:2039B900F09013D3E0FCA3E0FD751B00E51BF93395E0FAC3EC99ED64808AF063F08095F016
:2039D9005003023BD1C2D575F006E51B30E704B2D5F404A430D50AF42401C5F0F43400C563
:2039F900F0F51D85F01E2497F582E51E3413F583E0F8A3E0FF487003023BCCC004C005E599
:203A19001D2497FEE51E3413FF8E828F83A3A3E0F8A3E0FD8E828F83A3A3A3A3E0F517A371
:203A3900E0F518E8C39517F521ED9518F5228E828F83E0F523A3E0F524E82523FBED35243B
:203A5900FC8B258C26752700AE23AF247C00C005C004C002C001C021C022C017C018C000F5
:203A7900C005C025C026C027C006C007C004C001C0027465C0E07452C0E07480C0E0124419
:203A990002E58124EFF581D001D002C001C00274EAC0E07452C0E07480C0E0124402E58140
:203AB90024FBF581D004D005E51D2497F525E51E3413F526E51D2497FEE51E3413FF7404F7
:203AD9002EF523E43FF524E4F521F522D005D004852382852483E0FEA3E0FFAA21AB22C380
:203AF900EA9EEB64808FF063F08095F04003023BA59014027420F0E4A3F085218285228367
:203B1900C005C0041242A0E5828583F0D004D00545F0701DC005C00474CCC0E07450C0E078
:203B39007480C0E0124402158115811581D004D005852582852683E0FEA3E0FFE5212EF532
:203B590082E5223FF583E0FF7E00C005C004C007C0067400C0E07453C0E07480C0E0124434
:203B790002E58124FBF581D004D005852582852683E0FEA3E0FFE5212EF582E5223FF58363
:203B9900E4F00521B521020522023AE9C005C0047403C0E07453C0E07480C0E012440215E6
:203BB9008115811581D004D005852382852483E4F0A3F0051B0239C59013D9E4F0A3F0A333
:203BD900F0A3F00233EB7E007F00901399E0FCA3E0FD8E028F03C3EA9CEB64808DF063F08A
:203BF9008095F04003023C929014027410F0E4A3F08E828F83C007C0061242A0E5828583F1
:203C1900F0D006D00745F07033901397E0FCA3E0FDEE2CFCEF3DFD7B00C007C006C004C0B5
:203C390005C0037408C0E07453C0E07480C0E0124402E58124FAF581D006D007901397E073
:203C5900FCA3E0FDEE2CF582EF3DF583E0FD7C00C007C006C005C004740FC0E07453C0E0A1
:203C79007480C0E0124402E58124FBF581D006D0070EBE00010F023BE374CCC0E07450C037
:203C9900E07480C0E01244021581158115819013D9E4F0A3F0A3F0A3F00233EB7F00C3EF23
:203CB9006480948A4003023260C2D575F006EF30E704B2D5F404A430D50AF42401C5F0F412
:203CD9003400C5F02497FD741335F0FE8D828E83E0FBA3E0FC7A008B828C838AF0C007C06F
:173CF90006C005123DD8D005D006D0078D828E83E4F0A3F00F80A783
:204EE30088135370656369667920746865206275666665722073697A65202872616E676516
:204F030020333220746F20343830302920646976697369626C652062792031363A200A0D23
:204F2300004661696C656420746F20616C6C6F63617465206D656D6F72790A0D002A204562
:204F43006E74657220616E7920555050455243415345206C657474657220746F2061707051
:204F6300656E64206368617261637465727320696E746F2062756666657220300A0D002AB2
:204F830020507265737320272B2720746F20616C6C6F636174652061206E65772062756698
:204FA300666572200A0D002A20507265737320272D2720746F2072656D6F766520616C6C7E
:204FC3006F63617465642062756666657273200A0D002A20507265737320273F2720746F13
:204FE30020676574207468652068656170207265706F7274200A0D002A20507265737320C5
:20500300273D2720746F2067657420627566666572203020636F6E74656E74200A0D002A39
:205023002050726573732027402720746F2072657374617274207468652070726F6772615E
:205043006D200A0D00206D6F64652C2073706563696679206275666665722073697A652010
:205063002872616E676520323020746F20343030293A200A0D004669727374206578697443
:20508300207468652063757272656E74206D6F6465200A0D00206D6F64652C2073706563D1
:2050A30069667920627566666572206E756D62657220746F2064657374726F793A200A0DC4
:2050C30000206D6F64650A0D000A0D00206D6F6465202D2072657374617274696E672070D5
:2050E300726F6772616D200A0D000A0D4E6F7420656E6F756768206D656D6F727920746F44
:20510300206C6F61642C206563686F696E6720746F2073657269616C206F7574707574200F
:2051230025630A0D004661696C656420746F20616C6C6F63617465206D656D6F72792066E1
:205143006F72206275666665722C207472792064656C6574696E6720736F6D652075736975
:205163006E6720272D27200A0D00416C6C6F6361746564206D656D6F727920666F7220625A
:20518300756666657220232564200A0D004E6F7420616C6C6F77656420746F2072656D6FE2
:2051A30076652062756666657220300A0D00467265656420627566666572202325642C2078
:2051C30074727920273F2720746F2067657420696E666F206F66206578697374696E6720F1
:2051E3006275666665727320200A0D004E6F207375636820627566666572206578697374F1
:20520300732C2074727920273F2720746F2067657420696E666F206F6620657869737469E6
:205223006E672062756666657273200A0D00546F74616C206368617261637465727320638B
:205243006F756E743A202564200A0D0053696E6365206C61737420273F273A202564200AEB
:205263000D00427566666572202564202D2D3E0A0D20537461727420616464726573733ADE
:205283002025700A0D20456E6420616464726573733A2025700A0D20416C6C6F63617465B7
:2052A300642073697A653A2025750A0D2053746F726167652063686172616374657220635C
:2052C3006F756E74733A2025750A0D204672656520737061636520617661696C61626C65F8
:2052E3003A2025750A0D0042756666657220256420636F6E74656E743A200A0D0025630089
:105303000A0D0A0D000A0D2570203A0020257800A9
:203D1000AF83E5829013DDF0EFA3F03099FD9013DDE0FEA3E0FF8E99C2998E828F8322108C
:203D3000980280FBAE997F008E828F8322AFF0AE83E5829013DFF0EEA3F0EFA3F09013DF26
:203D5000E0FDA3E0FEA3E0FF7B007C008D828E838FF0124E2EFA60360DBD00010E9013DF64
:203D7000EDF0EEA3F0EFA3F08A017A0089828A83C007C006C005C004C003123D10D003D05B
:203D900004D005D006D0070BBB00C10C80BE9013DFEDF0EEA3F0EFA3F00BBB00010C8B827A
:203DB0008C8322123D2FAE82901442E02401F0A3E03400F0EEFD3395E0FF8D828F83C00619
:083DD000123D10D0068E822284
:02531E0000008D
:203DD800AFF0AE83E5829013E2F0EEA3F0EFA3F09013E2E0FDA3E0FEA3E09013E2E0F5F06C
:203DF800A3E045F07001229013E7E4F0A3F09013F4E0FBA3E0FC9013E5EBF0ECA3F09013F9
:203E1800E974F4F07413A3F09013E5E0FBA3E0FC4B60418B018C02C003C0048D008E04C3DE
:203E3800E998EA9CD004D003502A9013E7EBF0ECA3F074022BFBE43CFC9013E9EBF0ECA3B0
:203E5800F08B828C83E0FBA3E0FC9013E5EBF0ECA3F080B49013E5E0FEA3E0FF9013E2E081
:203E7800FBA3E0FCA3E0EB24FEFBEC34FFFC74022BFAE43CFD8A828D83EEF0EFA3F0901333
:203E9800E9E0F8A3E0F988828983EBF0ECA3F08B828C83E0F8A3E0F9EEB50033EFB5012F43
:203EB80088828983A3A3E0FEA3E0FF8A828D83EEF0EFA3F08B828C83E0FEA3E0FF8E828F97
:203ED80083E0FEA3E0FF8B828C83EEF0EFA3F09013E7E0FEA3E0FF4E603C8E828F83E0F89D
:203EF800A3E0F9E8B5032FE9B5042B8B828C83E0FBA3E0FC8E828F83EBF0ECA3F074022EFC
:173F1800FEE43FFF8A828D83E0FAA3E0FD8E828F83EAF0EDA3F0225E
:203F2F00AF82AE83ADF0FC9013EFEFF0EEA3F0EDA3F0ECA3F09013F3E4F09013EFE0FCA30B
:203F4F00E0FDA3E0FEA3E0FF7B009013EBE0F535A3E0F536A3E0F537A3E0F538235401FAE0
:203F6F007074C003E5352535F8E53633F9E53733FAE53833FB9013EBE8F0E9A3F0EAA3F0E5
:203F8F00EBA3F09013EBE0F535A3E0F536A3E0F537A3E0F538C3EC9535ED9536EE9537EF15
:203FAF009538D0035027E538C313F538E53713F537E53613F536E53513F5359013EBF0E54D
:203FCF0036A3F0E537A3F0E538A3F080090B9013F3EBF0023F599013F3E0FF9013EFE0FB29
:203FEF00A3E0FCA3E0FDA3E0FE9013EBE0F535A3E0F536A3E0F537A3E0F538C3EB9535EC29
:20400F009536ED9537EE953840179013EFEBC39535F0EC9536A3F0ED9537A3F0EE9538A30D
:20402F00F09013EBE0FBA3E0FCA3E0FDA3E0C313FEED13FDEC13FCEB139013EBF0ECA3F0CF
:20404F00EDA3F0EEA3F08F061FEE708F9013EFE0FCA3E0FDA3E0FEA3E08C828D838EF022FF
:06303500E478FFF6D8FD6F
:203013007902E94400601B7A0190531E784275A014E493F2A308B8000205A0D9F4DAF2759A
:02303300A0FFFC
:20406F009013F4740FF07400A3F0904EE3E493FE740193FF1EBEFF011FEE240FFEEF3400A6
:20408F00FF90000FEEF0EFA3F09013F4E0FEA3E0FF8E828F83A3A3E4F0A3F022AF83E58292
:2040AF009013F6F0EFA3F09013F4E0F5F0A3E045F0700312406F9013F6E0FEA3E0FF4E60F7
:2040CF000E74022EFCE43FFDC3EC9EED9F5004900000229013F674022EF0E43FA3F090139E
:2040EF00F6E0FEA3E0FFC3EE9404EF940050099013F67404F0E4A3F09013F4E0FEA3E0FFC7
:20410F009013F8EEF0EFA3F09013FA74F4F07413A3F09013F8E0FEA3E0FF4E700302421076
:20412F008E828F83E0FCA3E0FD8C028D038E008F01EAC398FAEB99FB8A008B019013F6E069
:20414F00F528A3E0F529C3E89528E9952950030241ED74042528F8E43529F9C3EA98EB993F
:20416F00404C8E028F03E5282AFAE5293BFB8A828B83ECF0EDA3F074022AFCE43BFD8E82CF
:20418F008F83A3A3E0F8A3E0F98C828D83E8F0E9A3F09013FAE0FCA3E0FD8C828D83EAF001
:2041AF00EBA3F08E828F83EAF0EBA3F0801C9013FAE0FCA3E0FD8E828F83A3A3E0FAA3E09E
:2041CF00FB8C828D83EAF0EBA3F09013F8E0FCA3E0FD74022CFCE43DFD8C828D83227402F6
:2041EF002EFEE43FFF9013FAEEF0EFA3F08E828F83E0FEA3E0FF9013F8EEF0EFA3F00241A5
:05420F002190000022D7
:20421400AA83AB828BF09013FCE0A4F8A9F08AF0E0A429F98BF0A3E0A429F5838882222250
:20423400A882A983AAF0FB88F09013FEE0A4FCADF089F0E0A42DFDE435F0FE88F0A3E0A47C
:204254002DFDE5F03EFEE433FF89F0E0A42EFEE5F03FFF88F0A3E0A42EFEE5F03FFF8AF065
:204274009013FEE0A42EFEE5F03FFF8BF0E0A42FFF8AF0A3E0A42FFF89F0A3E0A42FFF8874
:0C429400F0A3E0A42F8EF08D838C82221A
:2042A000AF83E582901404F0EFA3F0901404E0FEA3E0FF30E709C3E49EFCE49FFD80048E50
:2042C000048F05901402E0FEA3E0FF30E709C3E49EFAE49FFB80048E028F03901406EAF039
:2042E000EBA3F08C828D83124308AE82AF83901404E0A3E030E70CC3E49EFCE49FFD8C8266
:084300008D83228E828F83223F
:20430800AF83E582901408F0EFA3F090140AE4F0901408E0FEA3E0FF7D00901406E0FBA3AB
:20432800E0FC235401FA7036EB2BFBEC33FC901406EBF0ECA3F0901406E0FBA3E0FCC3EE9C
:204348009BEF9C5011ECC313CB13CBFC901406EBF0ECA3F080080D90140AEDF080BC901463
:204368000AE0FF901408E0FDA3E0FE901406E0FBA3E0FCC3ED9BEE9C400B901408EDC39B27
:20438800F0EE9CA3F0901406E0FDA3E0C313CD13CDFE901406EDF0EEA3F08F061FEE70C3A0
:0C43A800901408E0FEA3E08E82F5832252
:20303B007800E84400600A790075A000E4F309D8FC7842E84414600C7915900000E4F0A32A
:04305B00D8FCD9FACA
:2043B400C0348581347E008E83123D10D03422AFF0AE83E58290140CF0EEA3F0EFA3F0903D
:2043D400140CE0FDA3E0FEA3E0FF90140BE0FC901420E4F0A3F0A3F0901423EDF0EEA3F05B
:2043F400EFA3F0901426ECF09043B4024508C034E581F53424FBFF901420E4F0A3F0A3F04C
:20441400E53424FBF8901423E6F008E6A3F008E6A3F0901426EFF09043B4124508D0342204
:20443400E58290141CF0E0FF901412E0C0E0A3E0C0E0A3E0C0E012444F800D901410E0C070
:20445400E0A3E0C0E08F822215811581158190141AE02401F0A3E03400F022E58290141DAC
:20447400F0E02430FF24C6500D74072FFF90140FE060034307208F82024434E58290141E01
:20449400F0E0FFC4540FF582C00712446FD00753070F8F8202446FE58290141FF090141536
:2044B400E0FCA3E0FDA3E0FEA3E0FF901419E0FB90141FE0FA79208B00E828F535EF235490
:2044D400014535FBEC2CFCED33FDEE33FEEF33FFC3EB9A4007EBC39AFB43040119E970D77E
:2044F400901415ECF0EDA3F0EEA3F0EFA3F0901419EBF022AF83E582901427F0EFA3F09070
:204514001427E0FEA3E0FF901410EEF0EFA3F0901420E0FDA3E0FEA3E0FF901412EDF0EEB3
:20453400A3F0EFA3F090141AE4F0A3F0901423E0FDA3E0FEA3E0FF8D828E838FF0124E2E59
:20455400FC90142374012DF0E43EA3F0EFA3F0EC7003024E0ABC25028003024E029014297D
:20457400E4F090142AF090142BF090142CF090142DF090142EF090142FF0901430F0901468
:2045940032F0901433F0A3F090143514F0A3F0901423E0FDA3E0FEA3E0FF8D828E838FF0D5
:2045B400124E2EFBA3AD82AE83901423EDF0EEA3F0EFA3F0901439EBF0BB25088B821244B1
:2045D40034024540BB300050030246A1EB24C650030246A1901435E0F52AA3E0F52B74FFE6
:2045F400B52A63B52B60C005C006C007901433E0FAA3E0FF9013FCEAF0EFA3F090000AC04B
:2046140005C003124214AE82AF83D003D0058B027D00EA2EFEED3FFFEE24D0FEEF34FFFF00
:20463400901433EEF0EFA3F0D007D006D005901433E0F5F0A3E045F060030245AE90142A33
:204654007401F00245AEC005C006C0079013FCE52AF0E52BA3F090000AC006C005C003125F
:204674004214AA82AF83D003D005D0067E00EB2AFAEE3FFFEA24D0FAEF34FFFF901435EA7F
:20469400F0EFA3F0D007D006D0050245AE901439E0FBBB2E2FC005C006C007901435E0FA48
:2046B400A3E0FFBAFF05BFFF028009D007D006D0050245AED007D006D005901435E4F0A314
:2046D400F00245AEBB61004014EB2485400F90143974DF5BF090140F7401F0800590140FC3
:2046F400E4F0901439E0FBBB20028075BB2B028067BB2D028059BB4202806FBB4302807CCC
:20471400BB4403024998BB46030249BEBB48030245AEBB4903024998BB4A030245AEBB4CAA
:20473400028050BB4F030249A6BB5003024906BB53028077BB54030245AEBB55030249AE1C
:20475400BB58030249B6BB5A030245AE0249C69014297401F00245AE90142B7401F002456E
:20477400AE90142C7401F00245AE90142E7401F00245AE90142F7401F00245AE90142EE042
:20479400600E901426E014F9F0901439E7F0800F901426E024FEFFF08F01901439E7F0901E
:2047B4001439E0F5821244340249D5901426E024FDFFF08F018705098706098707191990D2
:2047D4001415EDF0EEA3F0EFA3F08D828E838FF0124E1685822A85832B901435E0FAA3E00D
:2047F400FDBAFF0DBDFF0A901435E52AF0E52BA3F0901429E0704B901433E0FAA3E0FDC345
:20481400E52A9AE52B9D503A901433EAC3952AF0ED952BA3F0901433E0FAA3E0FD8A068DE3
:20483400071ABAFF011DEE4F6010758220C005C002124434D002D00580E3901433EAF0EDEF
:20485400A3F0901435E0F52DA3E0F52E901415E0FAA3E0FDA3E0FF8A828D838FF0124E2E72
:20487400F52C603CC3E4952D7480852EF063F08095F0502C152D74FFB52D02152E852C8284
:20489400124434901415E0FAA3E0FDA3E0FF0ABA00010D901415EAF0EDA3F0EFA3F080AC52
:2048B400901429E070030249D5901433E0FEA3E0FFC3E52A9EE52B9F40030249D590143314
:2048D400EEC3952AF0EF952BA3F0901433E0FEA3E0FF8E028F051EBEFF011FEA4D70030220
:2048F40049CD758220C007C006124434D006D00780E0901426E024FDFDF08D01872F0987C7
:20491400300987311919901415E52FF0E530A3F0E531A3F0901417E0FDBD80004008901491
:20493400397443F08020BD600040089014397450F08013BD400040089014397449F0800605
:204954009014397458F0901439E0FDF582C00512443475823A1244347582301244347582C7
:2049740078124434D005BD4902800EBD50028009901416E0F58212448F901415E0F5821206
:20499400448F803D90142D7401F0901432740AF0802F9014327408F08027901432740AF01D
:2049B400801F9014327410F080179014307401F0800F8B821244348008901433EEF0EFA335
:2049D400F0901430E06071901426E024FCFFF08F01870309870509870609870719191990DE
:2049F4001415EBF0EDA3F0EEA3F0EFA3F09014157413F07453A3F07480A3F0901415E0F57D
:204A14002FA3E0F530A3E0F5317401252FFAE43530FBAF31901415EAF0EBA3F0EFA3F08503
:204A34002F828530838531F0124E2EFF70030245408F8212443480C3901432E070030245FE
:204A54004090142EE06047901426E014F9F087077E007D007B00901415EFF0EEA3F0EDA355
:204A7400F0EBA3F090142DE06003024B18901415E0FBA3E0A3E0A3E07D007E007F00901400
:204A940015EBF0EDA3F0EEA3F0EFA3F0807690142FE06028901426E024FCFFF08F0187038B
:204AB400098705098706098707191919901415EBF0EDA3F0EEA3F0EFA3F08048901426E04C
:204AD40024FEFFF08F01870609870719EF3395E0FDFB901415EEF0EFA3F0EDA3F0EBA3F03E
:204AF40090142DE0701E901415E0FBA3E0FDA3E0A3E07E007F00901415EBF0EDA3F0EEA3A7
:204B1400F0EFA3F090142DE06041901415E0FBA3E0FDA3E0FEA3E0FF30E72B901415E0FBD0
:204B3400A3E0FDA3E0FEA3E0FFC3E49BFBE49DFDE49EFEE49FFF901415EBF0EDA3F0EEA37C
:204B5400F0EFA3F0800590142DE4F09014317401F0901432E0F52D75323F753314E4F52AEE
:204B7400F52B901419E4F0852D821244AB901431E07033901419E0C454F0F52F901419E07D
:204B9400C4540F452FF52F853282853383E0FFE52F4207853282853383EFF0153274FFB5D0
:204BB40032021533800C901419E0FF853282853383F0052AE4B52A02052B901431E0B4014B
:204BD40000E433F0901415E0FAA3E0FBA3E0FEA3E0FFEA4B4E4F708A901440E532F0E533D7
:204BF400A3F0901437E52AF0E52BA3F0901433E0F5F0A3E045F070099014337401F0E4A301
:204C1400F090142AE0FFE07047901429E07041852A32852B33901433E0FAA3E0FBC007AF85
:204C3400320F8F067F00C3EE9AEF9BD0075019758220C007C003C002124434D002D003D094
:204C5400071ABAFF011B80D5901433EAF0EBA3F090142DE0602075822DC007124434D00749
:204C7400901433E024FFFDA3E034FFFE901433EDF0EEA3F08056901437E0F5F0A3E045F032
:204C9400604A90142BE0602075822BC007124434D007901433E024FFFDA3E034FFFE9014AE
:204CB40033EDF0EEA3F0802490142CE0601E758220C007124434D007901433E024FFFDA3C4
:204CD400E034FFFE901433EDF0EEA3F0901429E07048901437E0F532A3E0F533901433E0D1
:204CF400FAA3E0FBC0078A068B071ABAFF011BC3E5329EE5339FD0075053EF60067D307E27
:204D14000080047D207E008D82C007C003C002124434D002D003D00780CA901433E0FEA3DD
:204D3400E0FF901437E0F532A3E0F533C3E5329EE5339F500F901433EEC39532F0EF95336F
:204D5400A3F08011901433E4F0A3F08008901433EAF0EBA3F0901440E0FEA3E0FF90143707
:204D7400E0F532A3E0F533AA32AD33153274FFB532021533EA4D6045901431E0B40100E49C
:204D940033F0901431E070140EBE00010F8E828F83E0C4540FFD901419F0800E8E828F8344
:204DB400E0FD53050F901419EDF0901419E0F582C007C00612446FD006D00780AA901429F7
:204DD400E07003024540901433E0FEA3E0FF8E038F051EBEFF011FEB4D7003024540758265
:204DF40020C007C006124434D006D00780E08C8212443402454090141AE0FEA3E08E82F518
:024E14008322F7
:0B5313003C4E4F20464C4F41543E00E2
:184E1600AA82AB83124E2E6003A380F8C3E5829AF582E5839BF5832246
:0D300600758138123259E5826003023003F3
:1C4E2E0020F71430F6148883A88220F507E6A88375830022E280F7E49322E02293
:00000001FF
