:10306200AF82AE83ADF0FC900008EFF0EEA3F0ED7E
:10307200A3F0ECA3F090000CE4F0A3F0900000E0C9
:10308200F513A3E0F514A3E0F515A3E0F5169000FF
:1030920008E0F8A3E0F9A3E0FAA3E0FB900004E063
:1030A200F508A3E0F509A3E0F50AA3E0F50BC003D8
:1030B200C002C001C000123DCA85820CD000D001FE
:1030C200D002D00390000EE50CF0740AB50C028019
:1030D2000A740DB50C0280030231BA90000CE0F5BF
:1030E2000DA3E0F50E850D0FF5103395E0F511F502
:1030F20012C3E50F98E51099E5119AE5129B40126B
:10310200E513950FE5149510E5159511E516951241
:10311200502FC003C002C001C0007461C0E0744EF1
:10312200C0E07480C0E0124419158115811581D068
:1031320000D001D002D00390000CE4F0A3F00230E2
:10314200B09013EBE508F0E509A3F0E50AA3F0E57A
:103152000BA3F0850F828510838511F0E512C00361
:10316200C002C001C000123F46AC82AD83AEF0FF88
:10317200D000D001D002D003EC4D4E4F700302328A
:1031820039C003C002C001C000C008C009C00AC0E3
:103192000B749FC0E0744EC0E07480C0E01244190A
:1031A200E58124F9F581D000D001D002D00390004E
:1031B2000CE4F0A3F00230B0AF0CBF30004012E5D7
:1031C2000CFF24C6400BE50CFF24D090000EF080CB
:1031D20025C003C002C001C00074DBC0E0744EC051
:1031E200E07480C0E0124419158115811581D00068
:1031F200D001D002D00390000CE0FEA3E0FF9013B8
:10320200FCEEF0EFA3F090000AC003C002C001C0C0
:103212000012422BAE82AF83D000D001D002D00385
:1032220090000EE0FD7C002EFEEC3FFF90000CEEC5
:10323200F0EFA3F00230B0C00DC00E74F5C0E07420
:103242004EC0E07480C0E0124419E58124FBF58190
:07325200850D82850E832229
:104E6100496E7075742076616C7565206973206F69
:104E71007574206F6620657870656374656420724F
:104E8100616E6765212054727920612064696666CC
:104E91006572656E742076616C75650D0A00496EE8
:104EA1007075742076616C7565206973206E6F74FE
:104EB10020646976697369626C6520627920256472
:104EC1002120547279206120646966666572656E7D
:104ED100742076616C75650D0A00496E76616C69A6
:104EE1006420696E707574206368617261637465B2
:094EF100720D0A0025640D0A008F
:0330000002300695
:03305F0002300339
:0330030002326036
:10325900438E0C900000229013D5E4F0A3F0901453
:1032690042F0A3F09013D7F0A3F074FCC0E0744EC1
:10327900C0E07480C0E01244191581158115819050
:10328900000074C0F07412A3F0E4A3F0A3F090005E
:10329900047410F0E4A3F0A3F0A3F0900020E4F587
:1032A900F012306285821F858320AC1FAD208C828D
:1032B9008D83C005C0041240C2AA82AB83D004D05A
:1032C90005901397EAF0EBA3F0EA4B7018743BC032
:1032D900E0744FC0E07480C0E01244191581158173
:1032E9001581023260901399E51FF0E520A3F09053
:1032F900139BE4F0A3F08C828D831240C2AC82ADA3
:103309008390139DECF0EDA3F0EC4D7032743BC04B
:10331900E0744FC0E07480C0E01244191581158132
:103329001581901397E0FCA3E0FD7B008C828D83CF
:103339008BF0123DEF901397E4F0A3F00232609006
:10334900139FE51FF0E520A3F09013A1E4F0A3F08B
:103359009013D37402F0E4A3F07457C0E0744FC023
:10336900E07480C0E01244191581158115817499A2
:10337900C0E0744FC0E07480C0E012441915811593
:1033890081158174C1C0E0744FC0E07480C0E0123F
:10339900441915811581158174ECC0E0744FC0E0A2
:1033A9007480C0E01244191581158115817412C009
:1033B900E07450C0E07480C0E01244191581158191
:1033C90015817439C0E07450C0E07480C0E01244C3
:1033D900191581158115819013D9E4F0A3F0A3F093
:1033E900A3F0123DCAAD828D04BC4100402B8D046F
:1033F900EC24A540249013D9E0F5F0A3E042F0A312
:10340900E042F0A3E045F070109013D97401F0E4A4
:10341900A3F0A3F0A3F00235D9BD2B599013D9E03D
:10342900F5F0A3E042F0A3E042F0A3E045F07029F3
:10343900C005745FC0E07450C0E07480C0E01244FD
:1034490019158115811581D0059013D97402F0E4FD
:10345900A3F0A3F0A3F00235D9C0057490C0E074BD
:1034690050C0E07480C0E01244191581158115819E
:10347900D0050235D9BD2D599013D9E0F5F0A3E057
:1034890042F0A3E042F0A3E045F07029C00574AF13
:10349900C0E07450C0E07480C0E012441915811571
:1034A900811581D0059013D97403F0E4A3F0A3F03A
:1034B900A3F00235D9C0057490C0E07450C0E0741F
:1034C90080C0E0124419158115811581D005023596
:1034D900D9BD3F599013D9E0F5F0A3E042F0A3E03C
:1034E90042F0A3E045F07029C00574DBC0E07450D8
:1034F900C0E07480C0E0124419158115811581D08E
:10350900059013D97404F0E4A3F0A3F0A3F00235F5
:10351900D9C0057490C0E07450C0E07480C0E01256
:103529004419158115811581D0050235D9BD0A02C5
:103539008003BD0D26C00574E3C0E07450C0E0747B
:1035490080C0E0124419158115811581D0059013A9
:10355900D9E4F0A3F0A3F0A3F08075BD3D57901313
:10356900D9E0F5F0A3E042F0A3E042F0A3E045F092
:103579007028C00574DBC0E07450C0E07480C0E0FE
:10358900124419158115811581D0059013D9740537
:10359900F0E4A3F0A3F0A3F08036C0057490C0E076
:1035A9007450C0E07480C0E012441915811581156A
:1035B90081D005801BBD401874E6C0E07450C0E09E
:1035C9007480C0E0124419158115811581023CCC23
:1035D9009013D9E0F9A3E0FAA3E0FBA3E0FCB90159
:1035E9000BBA0008BB0005BC0002803FB9020CBA47
:1035F9000009BB0006BC00030236D3B9030CBA00AC
:1036090009BB0006BC0003023834B9040CBA00092E
:10361900BB0006BC0003023972B9050CBA0009BB2C
:103629000006BC0003023BF60233EBBD0A0280032D
:10363900BD0D237404C0E07451C0E07480C0E01271
:1036490044191581158115819013D9E4F0A3F0A3CC
:10365900F0A3F00233EB90139BE0FBA3E0FCC3EB78
:10366900951FEC64808520F063F08095F0503290CE
:103679001397E0FBA3E0FC90139BE0F9A3E0FAE9C0
:103689002BF582EA3CF583EDF090139BE0FBA3E078
:10369900FC0BBB00010C90139BEBF0ECA3F0023385
:1036A900EB7C00C005C0047433C0E07451C0E07401
:1036B90080C0E0124419E58124FBF5819013D9E417
:1036C900F0A3F0A3F0A3F00233EB9000007490F0A4
:1036D9007401A3F0E4A3F0A3F09000047410F0E4E3
:1036E900A3F0A3F0A3F0900014E4F5F01230628582
:1036F900821D85831E780179007A007B00C3E894D6
:103709000AE99400EA9400EB64809480400302374C
:10371900E89013FEE8F0E9A3F0EAA3F0EBA3F09038
:103729000006E4F5F0C003C002C001C00012424B1C
:1037390085821785831885F019F51AD000D001D034
:1037490002D003E5172497F51BE5183413F51C85FA
:103759001B82851C83E0FCA3E0FD4C7072AC1DAD9F
:103769001E8C828D83C003C002C001C0001240C2FA
:10377900AC82AD83D000D001D002D003851B8285F5
:103789001C83ECF0EDA3F0EC4D7017746EC0E0747F
:1037990051C0E07480C0E01244191581158115816A
:1037A900803DE5172497FCE5183413FD8C828D8341
:1037B900A3A3E51DF0E51EA3F08C828D83A3A3A32B
:1037C900A3E4F0A3F09013D5E8F0E9A3F080100882
:1037D900B8000909B900050ABA00010B02370690B9
:1037E90013D5E0F5F0A3E045F060329013D5E0C0C1
:1037F900E0A3E0C0E0749BC0E07451C0E07480C0F5
:10380900E0124419E58124FBF5819013D3E02401EA
:10381900F0A3E03400F09013D5E4F0A3F09013D9AD
:10382900E4F0A3F0A3F0A3F00233EB900000740AD4
:10383900F0E4A3F0A3F0A3F090000404F0E4A3F0F3
:10384900A3F0A3F0900000E4F5F0123062AC82AD71
:1038590083EC4D701874CDC0E07451C0E07480C021
:10386900E01244191581158115810239649013D329
:10387900E0FAA3E0FB8C008D01C3E89AE964808B30
:10388900F063F08095F0400302394F9013FCECF09F
:10389900EDA3F0900006C005C004C003C0021242A7
:1038A9002B858217858318D002D003D004D005E573
:1038B900172497F51DE5183413F51E851D82851EFD
:1038C90083E0F51BA3E0F51CE51B451C6078AE1BE6
:1038D900A91C7F008E8289838FF0C005C004C003B4
:1038E900C002123DEFD002D003D004D005851D825D
:1038F900851E83E4F0A3F0E5172497FEE518341339
:10390900FF8E828F83A3A3E4F0A3F08E828F83A31B
:10391900A3A3A3F0A3F0C003C002C004C00574F6BA
:10392900C0E07451C0E07480C0E0124419E58124FC
:10393900FBF581D002D0031ABAFF011B9013D3EA19
:10394900F0EBA3F080157419C0E07452C0E07480E4
:10395900C0E01244191581158115819013D9E4F03D
:10396900A3F0A3F0A3F00233EB901442E0C0E0A36C
:10397900E0C0E07441C0E07452C0E07480C0E0125D
:103989004419E58124FBF5819013D7E0FCA3E0FD00
:10399900901442E0FAA3E0FBEAC39CFCEB9DFDC056
:1039A90004C005745FC0E07452C0E07480C0E012C6
:1039B9004419E58124FBF581901442E0FCA3E0FD64
:1039C9009013D7ECF0EDA3F09013D3E0FCA3E0FD46
:1039D900751B00E51BF93395E0FAC3EC99ED64809A
:1039E9008AF063F08095F05003023BE8C2D575F088
:1039F90006E51B30E704B2D5F404A430D50AF42453
:103A090001C5F0F43400C5F0F51D85F01E2497F5C5
:103A190082E51E3413F583E0F8A3E0FF4870030242
:103A29003BE3C004C005E51D2497FEE51E3413FFE2
:103A39008E828F83A3A3E0F8A3E0FD8E828F83A3F8
:103A4900A3A3A3E0F517A3E0F518E8C39517F5219B
:103A5900ED9518F5228E828F83E0F523A3E0F524F6
:103A6900E82523FBED3524FC8B258C26752700AE34
:103A790023AF247C00C005C004C002C001C021C01E
:103A890022C017C018C000C005C025C026C027C065
:103A990006C007C004C001C0027475C0E07452C0FA
:103AA900E07480C0E0124419E58124EFF581D0016A
:103AB900D002C001C00274F4C0E07452C0E0748046
:103AC900C0E0124419E58124FBF581D004D005E555
:103AD9001D2497F525E51E3413F526E51D2497FECB
:103AE900E51E3413FF74042EF523E43FF524E4F5B1
:103AF90021F522D005D004852382852483E0FEA305
:103B0900E0FFAA21AB22C3EA9EEB64808FF063F049
:103B19008095F04003023BBC9014027420F0E4A3AA
:103B2900F0852182852283C005C0041242B7E5824F
:103B39008583F0D004D00545F0701DC005C004741C
:103B4900E3C0E07450C0E07480C0E01244191581EC
:103B590015811581D004D005852582852683E0FE4F
:103B6900A3E0FFE5212EF582E5223FF583E0FF7E04
:103B790000C005C004C007C006740AC0E07453C081
:103B8900E07480C0E0124419E58124FBF581D0047A
:103B9900D005852582852683E0FEA3E0FFE5212E59
:103BA900F582E5223FF583E4F00521B521020522DE
:103BB900023B00C005C00474E3C0E07450C0E07467
:103BC90080C0E0124419158115811581D004D005F2
:103BD900852382852483E4F0A3F0051B0239DC9058
:103BE90013D9E4F0A3F0A3F0A3F00233EB7E007F36
:103BF90000901399E0FCA3E0FD8E028F03C3EA9CB9
:103C0900EB64808DF063F08095F04003023CA9904D
:103C190014027410F0E4A3F08E828F83C007C006EB
:103C29001242B7E5828583F0D006D00745F070339C
:103C3900901397E0FCA3E0FDEE2CFCEF3DFD7B002B
:103C4900C007C006C004C005C003740DC0E07453AA
:103C5900C0E07480C0E0124419E58124FAF581D0EE
:103C690006D007901397E0FCA3E0FDEE2CF582EF58
:103C79003DF583E0FD7C00C007C006C005C00474A3
:103C890014C0E07453C0E07480C0E0124419E581A7
:103C990024FBF581D006D0070EBE00010F023BFAC6
:103CA90074E3C0E07450C0E07480C0E01244191598
:103CB90081158115819013D9E4F0A3F0A3F0A3F045
:103CC9000233EB7F00C3EF6480948A4003023260C1
:103CD900C2D575F006EF30E704B2D5F404A430D5A7
:103CE9000AF42401C5F0F43400C5F02497FD7413D7
:103CF90035F0FE8D828E83E0FBA3E0FC7A008B8297
:103D09008C838AF0C007C006C005123DEFD005D0EC
:0E3D190006D0078D828E83E4F0A3F00F80A702
:104EFA0088135370656369667920746865206275E2
:104F0A00666665722073697A65202872616E6765C4
:104F1A0020333220746F2034383030292064697687
:104F2A00697369626C652062792031363A200A0D0C
:104F3A00004661696C656420746F20616C6C6F63F4
:104F4A00617465206D656D6F72790A0D002A2045BE
:104F5A006E74657220616E792055505045524341F6
:104F6A005345206C657474657220746F206170708B
:104F7A00656E642063686172616374657273206927
:104F8A006E746F2062756666657220300A0D002A9B
:104F9A0020507265737320272B2720746F20616C51
:104FAA006C6F636174652061206E65772062756637
:104FBA00666572200A0D002A2050726573732027D5
:104FCA002D2720746F2072656D6F766520616C6C79
:104FDA006F63617465642062756666657273200A20
:104FEA000D002A20507265737320273F2720746FA3
:104FFA002067657420746865206865617020726531
:10500A00706F7274200A0D002A2050726573732023
:10501A00273D2720746F2067657420627566666570
:10502A0072203020636F6E74656E74200A0D002A38
:10503A002050726573732027402720746F20726591
:10504A007374617274207468652070726F6772611C
:10505A006D200A0D00206D6F64652C2073706563E6
:10506A00696679206275666665722073697A652059
:10507A002872616E676520323020746F20343030B8
:10508A00293A200A0D00466972737420657869749A
:10509A00207468652063757272656E74206D6F6422
:1050AA0065200A0D00206D6F64652C20737065639E
:1050BA0069667920627566666572206E756D6265CD
:1050CA007220746F2064657374726F793A200A0DC6
:1050DA0000206D6F64650A0D000A0D00206D6F6473
:1050EA0065202D2072657374617274696E67207011
:1050FA00726F6772616D200A0D00436861726163A5
:10510A007465727320616464656420746F206275CB
:10511A00666665722030202D2065786974696E672D
:10512A00206D6F6465200A0D000A0D4E6F742065AC
:10513A006E6F756768206D656D6F727920746F2068
:10514A006C6F61642C206563686F696E6720746F89
:10515A002073657269616C206F757470757420258F
:10516A00630A0D004661696C656420746F20616C86
:10517A006C6F63617465206D656D6F727920202D87
:10518A002065786974696E67206D6F6465200A0D01
:10519A0000416C6C6F6361746564206D656D6F723C
:1051AA007920617320627566666572202325642002
:1051BA00202D2065786974696E67206D6F6465209B
:1051CA000A0D0043616E6E6F742072656D6F7665AD
:1051DA00206275666665722030202D2065786974B4
:1051EA00696E67206D6F6465200A0D0046726565F9
:1051FA00642062756666657220232564202D206509
:10520A00786974696E67206D6F6465200A0D004EB7
:10521A006F207375636820627566666572206578AB
:10522A0069737473202D2065786974696E67206DBF
:10523A006F6465200A0D00546F74616C20636861A5
:10524A007261637465727320636F756E743A202598
:10525A0064200A0D0053696E6365206C61737420C3
:10526A00273F273A202564200A0D004275666665A5
:10527A0072202564202D2D3E2053746172742061A2
:10528A006464726573733A2025702C20456E64201D
:10529A00616464726573733A2025702C20416C6CCA
:1052AA006F63617465642073697A653A2025752C89
:1052BA002053746F726167652063686172616374F9
:1052CA00657220636F756E74733A2025752C2046BB
:1052DA0072656520737061636520617661696C61CE
:1052EA00626C653A2025750A0D004275666665721C
:1052FA0020256420636F6E74656E743A200A0D006F
:0E530A002563000A0D2570203A00202578004A
:103D2700AF83E5829013DDF0EFA3F03099FD901398
:103D3700DDE0FEA3E0FF8E99C2998E828F83221069
:103D4700980280FBAE997F008E828F8322AFF0AE00
:103D570083E5829013DFF0EEA3F0EFA3F09013DF7B
:103D6700E0FDA3E0FEA3E0FF7B007C008D828E8355
:103D77008FF0124E45FA60360DBD00010E9013DF2D
:103D8700EDF0EEA3F0EFA3F08A017A0089828A832F
:103D9700C007C006C005C004C003123D27D003D02A
:103DA70004D005D006D0070BBB00C10C80BE901312
:103DB700DFEDF0EEA3F0EFA3F00BBB00010C8B825D
:103DC7008C8322123D46AE82901442E02401F0A378
:103DD700E03400F0EEFD3395E0FF8D828F83C0065F
:083DE700123D27D0068E822256
:02532300000088
:103DEF00AFF0AE83E5829013E2F0EEA3F0EFA3F015
:103DFF009013E2E0FDA3E0FEA3E09013E2E0F5F004
:103E0F00A3E045F07001229013E7E4F0A3F09013C4
:103E1F00F4E0FBA3E0FC9013E5EBF0ECA3F09013C0
:103E2F00E974F4F07413A3F09013E5E0FBA3E0FC46
:103E3F004B60418B018C02C003C0048D008E04C304
:103E4F00E998EA9CD004D003502A9013E7EBF0ECEA
:103E5F00A3F074022BFBE43CFC9013E9EBF0ECA312
:103E6F00F08B828C83E0FBA3E0FC9013E5EBF0EC8E
:103E7F00A3F080B49013E5E0FEA3E0FF9013E2E01F
:103E8F00FBA3E0FCA3E0EB24FEFBEC34FFFC74028D
:103E9F002BFAE43CFD8A828D83EEF0EFA3F09013B2
:103EAF00E9E0F8A3E0F988828983EBF0ECA3F08BCB
:103EBF00828C83E0F8A3E0F9EEB50033EFB5012F64
:103ECF0088828983A3A3E0FEA3E0FF8A828D83EE1D
:103EDF00F0EFA3F08B828C83E0FEA3E0FF8E828F46
:103EEF0083E0FEA3E0FF8B828C83EEF0EFA3F090D4
:103EFF0013E7E0FEA3E0FF4E603C8E828F83E0F875
:103F0F00A3E0F9E8B5032FE9B5042B8B828C83E08E
:103F1F00FBA3E0FC8E828F83EBF0ECA3F074022EF8
:103F2F00FEE43FFF8A828D83E0FAA3E0FD8E828F4D
:103F3F0083EAF0EDA3F022AF82AE83ADF0FC9013D5
:103F4F00EFEFF0EEA3F0EDA3F0ECA3F09013F3E49A
:103F5F00F09013EFE0FCA3E0FDA3E0FEA3E0FF7BF6
:103F6F00009013EBE0F535A3E0F536A3E0F537A3AA
:103F7F00E0F538235401FA7074C003E5352535F8A0
:103F8F00E53633F9E53733FAE53833FB9013EBE8D1
:103F9F00F0E9A3F0EAA3F0EBA3F09013EBE0F53513
:103FAF00A3E0F536A3E0F537A3E0F538C3EC95357C
:103FBF00ED9536EE9537EF9538D0035027E538C39A
:103FCF0013F538E53713F537E53613F536E53513C1
:103FDF00F5359013EBF0E536A3F0E537A3F0E538B0
:103FEF00A3F080090B9013F3EBF0023F709013F3E3
:103FFF00E0FF9013EFE0FBA3E0FCA3E0FDA3E0FEE6
:10400F009013EBE0F535A3E0F536A3E0F537A3E029
:10401F00F538C3EB9535EC9536ED9537EE95384081
:10402F00179013EFEBC39535F0EC9536A3F0ED95A4
:10403F0037A3F0EE9538A3F09013EBE0FBA3E0FC71
:10404F00A3E0FDA3E0C313FEED13FDEC13FCEB1394
:10405F009013EBF0ECA3F0EDA3F0EEA3F08F061F9F
:10406F00EE708F9013EFE0FCA3E0FDA3E0FEA3E062
:07407F008C828D838EF0227C
:06303500E478FFF6D8FD6F
:103013007902E94400601B7A01905323784275A03A
:1030230014E493F2A308B8000205A0D9F4DAF27508
:02303300A0FFFC
:104086009013F4740FF07400A3F0904EFAE493FECC
:10409600740193FF1EBEFF011FEE240FFEEF3400D6
:1040A600FF90000FEEF0EFA3F09013F4E0FEA3E014
:1040B600FF8E828F83A3A3E4F0A3F022AF83E58271
:1040C6009013F6F0EFA3F09013F4E0F5F0A3E045BB
:1040D600F070031240869013F6E0FEA3E0FF4E60F8
:1040E6000E74022EFCE43FFDC3EC9EED9F5004903F
:1040F6000000229013F674022EF0E43FA3F0901312
:10410600F6E0FEA3E0FFC3EE9404EF94005009909E
:1041160013F67404F0E4A3F09013F4E0FEA3E0FFBA
:104126009013F8EEF0EFA3F09013FA74F4F0741312
:10413600A3F09013F8E0FEA3E0FF4E7003024227BF
:104146008E828F83E0FCA3E0FD8C028D038E008FB0
:1041560001EAC398FAEB99FB8A008B019013F6E00B
:10416600F528A3E0F529C3E89528E9952950030227
:10417600420474042528F8E43529F9C3EA98EB9932
:10418600404C8E028F03E5282AFAE5293BFB8A82FA
:104196008B83ECF0EDA3F074022AFCE43BFD8E82E7
:1041A6008F83A3A3E0F8A3E0F98C828D83E8F0E97E
:1041B600A3F09013FAE0FCA3E0FD8C828D83EAF075
:1041C600EBA3F08E828F83EAF0EBA3F0801C9013B2
:1041D600FAE0FCA3E0FD8E828F83A3A3E0FAA3E0BE
:1041E600FB8C828D83EAF0EBA3F09013F8E0FCA33E
:1041F600E0FD74022CFCE43DFD8C828D832274026A
:104206002EFEE43FFF9013FAEEF0EFA3F08E828FBE
:1042160083E0FEA3E0FF9013F8EEF0EFA3F0024177
:104226003890000022AA83AB828BF09013FCE0A4A6
:10423600F8A9F08AF0E0A429F98BF0A3E0A429F507
:104246008388822222A882A983AAF0FB88F0901391
:10425600FEE0A4FCADF089F0E0A42DFDE435F0FE0F
:1042660088F0A3E0A42DFDE5F03EFEE433FF89F0DF
:10427600E0A42EFEE5F03FFF88F0A3E0A42EFEE5C5
:10428600F03FFF8AF09013FEE0A42EFEE5F03FFF1C
:104296008BF0E0A42FFF8AF0A3E0A42FFF89F0A300
:1042A600E0A42FFF88F0A3E0A42F8EF08D838C82EC
:1042B60022AF83E582901404F0EFA3F0901404E09B
:1042C600FEA3E0FF30E709C3E49EFCE49FFD800403
:1042D6008E048F05901402E0FEA3E0FF30E709C3C9
:1042E600E49EFAE49FFB80048E028F03901406EA94
:1042F600F0EBA3F08C828D8312431FAE82AF8390C6
:104306001404E0A3E030E70CC3E49EFCE49FFD8CBC
:10431600828D83228E828F8322AF83E5829014085A
:10432600F0EFA3F090140AE4F0901408E0FEA3E086
:10433600FF7D00901406E0FBA3E0FC235401FA7015
:1043460036EB2BFBEC33FC901406EBF0ECA3F09071
:104356001406E0FBA3E0FCC3EE9BEF9C5011ECC3FC
:1043660013CB13CBFC901406EBF0ECA3F080080DF6
:1043760090140AEDF080BC90140AE0FF901408E057
:10438600FDA3E0FE901406E0FBA3E0FCC3ED9BEE6C
:104396009C400B901408EDC39BF0EE9CA3F0901488
:1043A60006E0FDA3E0C313CD13CDFE901406EDF099
:1043B600EEA3F08F061FEE70C3901408E0FEA3E094
:0543C6008E82F5832248
:10303B007800E84400600A790075A000E4F309D831
:10304B00FC7842E84414600C7915900000E4F0A37E
:04305B00D8FCD9FACA
:1043CB00C0348581347E008E83123D27D03422AFDA
:1043DB00F0AE83E58290140CF0EEA3F0EFA3F09017
:1043EB00140CE0FDA3E0FEA3E0FF90140BE0FC90A7
:1043FB001420E4F0A3F0A3F0901423EDF0EEA3F05F
:10440B00EFA3F0901426ECF09043CB02451FC03481
:10441B00E581F53424FBFF901420E4F0A3F0A3F026
:10442B00E53424FBF8901423E6F008E6A3F008E645
:10443B00A3F0901426EFF09043CB12451FD03422FB
:10444B00E58290141CF0E0FF901412E0C0E0A3E0B2
:10445B00C0E0A3E0C0E0124466800D901410E0C0F1
:10446B00E0A3E0C0E08F82221581158115819014A5
:10447B001AE02401F0A3E03400F022E58290141D31
:10448B00F0E02430FF24C6500D74072FFF90140F5B
:10449B00E060034307208F8202444BE58290141E99
:1044AB00F0E0FFC4540FF582C007124486D00753C7
:1044BB00070F8F82024486E58290141FF09014152B
:1044CB00E0FCA3E0FDA3E0FEA3E0FF901419E0FBEA
:1044DB0090141FE0FA79208B00E828F535EF235470
:1044EB00014535FBEC2CFCED33FDEE33FEEF33FFDA
:1044FB00C3EB9A4007EBC39AFB43040119E970D74E
:10450B00901415ECF0EDA3F0EEA3F0EFA3F09014E4
:10451B0019EBF022AF83E582901427F0EFA3F09014
:10452B001427E0FEA3E0FF901410EEF0EFA3F09041
:10453B001420E0FDA3E0FEA3E0FF901412EDF0EEDB
:10454B00A3F0EFA3F090141AE4F0A3F0901423E07F
:10455B00FDA3E0FEA3E0FF8D828E838FF0124E450C
:10456B00FC90142374012DF0E43EA3F0EFA3F0ECC8
:10457B007003024E21BC25028003024E19901429B0
:10458B00E4F090142AF090142BF090142CF090146B
:10459B002DF090142EF090142FF0901430F0901406
:1045AB0032F0901433F0A3F090143514F0A3F09084
:1045BB001423E0FDA3E0FEA3E0FF8D828E838FF03A
:1045CB00124E45FBA3AD82AE83901423EDF0EEA308
:1045DB00F0EFA3F0901439EBF0BB25088B8212445B
:1045EB004B024557BB300050030246B8EB24C65074
:1045FB00030246B8901435E0F52AA3E0F52B74FFBF
:10460B00B52A63B52B60C005C006C007901433E014
:10461B00FAA3E0FF9013FCEAF0EFA3F090000AC0BE
:10462B0005C00312422BAE82AF83D003D0058B02A1
:10463B007D00EA2EFEED3FFFEE24D0FEEF34FFFFB0
:10464B00901433EEF0EFA3F0D007D006D005901402
:10465B0033E0F5F0A3E045F060030245C590142A62
:10466B007401F00245C5C005C006C0079013FCE5F8
:10467B002AF0E52BA3F090000AC006C005C0031278
:10468B00422BAA82AF83D003D005D0067E00EB2A43
:10469B00FAEE3FFFEA24D0FAEF34FFFF901435EA2D
:1046AB00F0EFA3F0D007D006D0050245C590143922
:1046BB00E0FBBB2E2FC005C006C007901435E0FAF7
:1046CB00A3E0FFBAFF05BFFF028009D007D006D0D9
:1046DB00050245C5D007D006D005901435E4F0A3EC
:1046EB00F00245C5BB61004014EB2485400F9014CC
:1046FB003974DF5BF090140F7401F0800590140F88
:10470B00E4F0901439E0FBBB20028075BB2B0280D8
:10471B0067BB2D028059BB4202806FBB4302807C7A
:10472B00BB44030249AFBB46030249D5BB48030256
:10473B0045C5BB49030249AFBB4A030245C5BB4C48
:10474B00028050BB4F030249BDBB500302491DBB46
:10475B0053028077BB54030245C5BB55030249C5C1
:10476B00BB58030249CDBB5A030245C50249DD9034
:10477B0014297401F00245C590142B7401F0024505
:10478B00C590142C7401F00245C590142E7401F0E1
:10479B000245C590142F7401F00245C590142EE00C
:1047AB00600E901426E014F9F0901439E7F0800FA6
:1047BB00901426E024FEFFF08F01901439E7F0905F
:1047CB001439E0F58212444B0249EC901426E02494
:1047DB00FDFFF08F018705098706098707191990D7
:1047EB001415EDF0EEA3F0EFA3F08D828E838FF016
:1047FB00124E2D85822A85832B901435E0FAA3E087
:10480B00FDBAFF0DBDFF0A901435E52AF0E52BA389
:10481B00F0901429E0704B901433E0FAA3E0FDC341
:10482B00E52A9AE52B9D503A901433EAC3952AF06A
:10483B00ED952BA3F0901433E0FAA3E0FD8A068DDF
:10484B00071ABAFF011DEE4F6010758220C005C01C
:10485B000212444BD002D00580E3901433EAF0ED02
:10486B00A3F0901435E0F52DA3E0F52E901415E090
:10487B00FAA3E0FDA3E0FF8A828D838FF0124E45F1
:10488B00F52C603CC3E4952D7480852EF063F0808D
:10489B0095F0502C152D74FFB52D02152E852C82FD
:1048AB0012444B901415E0FAA3E0FDA3E0FF0ABA03
:1048BB0000010D901415EAF0EDA3F0EFA3F080AC1E
:1048CB00901429E070030249EC901433E0FEA3E04E
:1048DB00FFC3E52A9EE52B9F40030249EC9014335E
:1048EB00EEC3952AF0EF952BA3F0901433E0FEA3C3
:1048FB00E0FF8E028F051EBEFF011FEA4D70030203
:10490B0049E4758220C007C00612444BD006D0077D
:10491B0080E0901426E024FDFDF08D01872F0987A0
:10492B00300987311919901415E52FF0E530A3F0F4
:10493B00E531A3F0901417E0FDBD80004008901402
:10494B00397443F08020BD600040089014397450D6
:10495B00F08013BD400040089014397449F0800674
:10496B009014397458F0901439E0FDF582C005129B
:10497B00444B75823A12444B75823012444B75820C
:10498B007812444BD005BD4902800EBD5002800900
:10499B00901416E0F5821244A6901415E0F58212DD
:1049AB0044A6803D90142D7401F0901432740AF0DB
:1049BB00802F9014327408F08027901432740AF010
:1049CB00801F9014327410F080179014307401F023
:1049DB00800F8B8212444B8008901433EEF0EFA3C0
:1049EB00F0901430E06071901426E024FCFFF08FFF
:1049FB000187030987050987060987071919199084
:104A0B001415EBF0EDA3F0EEA3F0EFA3F09014155B
:104A1B007418F07453A3F07480A3F0901415E0F5A0
:104A2B002FA3E0F530A3E0F5317401252FFAE4351F
:104A3B0030FBAF31901415EAF0EBA3F0EFA3F08548
:104A4B002F828530838531F0124E45FF700302456E
:104A5B00578F8212444B80C3901432E0700302458F
:104A6B005790142EE06047901426E014F9F0870756
:104A7B007E007D007B00901415EFF0EEA3F0EDA30C
:104A8B00F0EBA3F090142DE06003024B2F90141564
:104A9B00E0FBA3E0A3E0A3E07D007E007F00901489
:104AAB0015EBF0EDA3F0EEA3F0EFA3F080769014EE
:104ABB002FE06028901426E024FCFFF08F01870381
:104ACB00098705098706098707191919901415EB2A
:104ADB00F0EDA3F0EEA3F0EFA3F08048901426E0E6
:104AEB0024FEFFF08F01870609870719EF3395E046
:104AFB00FDFB901415EEF0EFA3F0EDA3F0EBA3F09C
:104B0B0090142DE0701E901415E0FBA3E0FDA3E0C4
:104B1B00A3E07E007F00901415EBF0EDA3F0EEA365
:104B2B00F0EFA3F090142DE06041901415E0FBA37F
:104B3B00E0FDA3E0FEA3E0FF30E72B901415E0FBB4
:104B4B00A3E0FDA3E0FEA3E0FFC3E49BFBE49DFD1C
:104B5B00E49EFEE49FFF901415EBF0EDA3F0EEA3A3
:104B6B00F0EFA3F0800590142DE4F0901431740154
:104B7B00F0901432E0F52D75323F753314E4F52ABD
:104B8B00F52B901419E4F0852D821244C290143148
:104B9B00E07033901419E0C454F0F52F901419E021
:104BAB00C4540F452FF52F853282853383E0FFE503
:104BBB002F4207853282853383EFF0153274FFB5B0
:104BCB0032021533800C901419E0FF853282853345
:104BDB0083F0052AE4B52A02052B901431E0B401C9
:104BEB0000E433F0901415E0FAA3E0FBA3E0FEA37E
:104BFB00E0FFEA4B4E4F708A901440E532F0E533FC
:104C0B00A3F0901437E52AF0E52BA3F0901433E0D2
:104C1B00F5F0A3E045F070099014337401F0E4A3B0
:104C2B00F090142AE0FFE07047901429E070418562
:104C3B002A32852B33901433E0FAA3E0FBC007AF85
:104C4B00320F8F067F00C3EE9AEF9BD0075019757A
:104C5B008220C007C003C00212444BD002D003D045
:104C6B00071ABAFF011B80D5901433EAF0EBA3F0BF
:104C7B0090142DE0602075822DC00712444BD00795
:104C8B00901433E024FFFDA3E034FFFE901433EDCA
:104C9B00F0EEA3F08056901437E0F5F0A3E045F06A
:104CAB00604A90142BE0602075822BC00712444B96
:104CBB00D007901433E024FFFDA3E034FFFE9014E3
:104CCB0033EDF0EEA3F0802490142CE0601E75827F
:104CDB0020C00712444BD007901433E024FFFDA3F0
:104CEB00E034FFFE901433EDF0EEA3F0901429E0C6
:104CFB007048901437E0F532A3E0F533901433E0AD
:104D0B00FAA3E0FBC0078A068B071ABAFF011BC385
:104D1B00E5329EE5339FD0075053EF60067D307E22
:104D2B000080047D207E008D82C007C003C002126C
:104D3B00444BD002D003D00780CA901433E0FEA3BB
:104D4B00E0FF901437E0F532A3E0F533C3E5329E74
:104D5B00E5339F500F901433EEC39532F0EF95333C
:104D6B00A3F08011901433E4F0A3F0800890143377
:104D7B00EAF0EBA3F0901440E0FEA3E0FF901437B1
:104D8B00E0F532A3E0F533AA32AD33153274FFB53B
:104D9B0032021533EA4D6045901431E0B40100E462
:104DAB0033F0901431E070140EBE00010F8E828F21
:104DBB0083E0C4540FFD901419F0800E8E828F8304
:104DCB00E0FD53050F901419EDF0901419E0F582E6
:104DDB00C007C006124486D006D00780AA901429BB
:104DEB00E07003024557901433E0FEA3E0FF8E03FF
:104DFB008F051EBEFF011FEB4D70030245577582D9
:104E0B0020C007C00612444BD006D00780E08C822E
:104E1B0012444B02455790141AE0FEA3E08E82F524
:024E2B008322E0
:0B5318003C4E4F20464C4F41543E00DD
:104E2D00AA82AB83124E456003A380F8C3E5829A34
:084E3D00F582E5839BF5832259
:0D300600758138123259E5826003023003F3
:104E450020F71430F6148883A88220F507E6A88396
:0C4E550075830022E280F7E49322E02243
:00000001FF
