:20306200AF82AE83ADF0FC900008EFF0EEA3F0EDA3F0ECA3F090000CE4F0A3F0900000E0E9
:20308200F513A3E0F514A3E0F515A3E0F516900008E0F8A3E0F9A3E0FAA3E0FB900004E024
:2030A200F508A3E0F509A3E0F50AA3E0F50BC003C002C001C000123DB285820CD000D001D0
:2030C200D002D00390000EE50CF0740AB50C02800A740DB50C0280030231BA90000CE0F5DA
:2030E2000DA3E0F50E850D0FF5103395E0F511F512C3E50F98E51099E5119AE5129B40128F
:20310200E513950FE5149510E5159511E5169512502FC003C002C001C0007449C0E0744E8D
:20312200C0E07480C0E0124401158115811581D000D001D002D00390000CE4F0A3F00230C5
:20314200B0901643E508F0E509A3F0E50AA3F0E50BA3F0850F828510838511F0E512C00303
:20316200C002C001C000123F2EAC82AD83AEF0FFD000D001D002D003EC4D4E4F70030232CD
:2031820039C003C002C001C000C008C009C00AC00B7487C0E0744EC0E07480C0E0124401E0
:2031A200E58124F9F581D000D001D002D00390000CE4F0A3F00230B0AF0CBF30004012E508
:2031C2000CFF24C6400BE50CFF24D090000EF08025C003C002C001C00074C3C0E0744EC037
:2031E200E07480C0E0124401158115811581D000D001D002D00390000CE0FEA3E0FF901658
:2032020054EEF0EFA3F090000AC003C002C001C000124213AE82AF83D000D001D002D00349
:2032220090000EE0FD7C002EFEEC3FFF90000CEEF0EFA3F00230B0C00DC00E74DDC0E07461
:173242004EC0E07480C0E0124401E58124FBF581850D82850E832255
:204E4900496E7075742076616C7565206973206F7574206F6620657870656374656420728F
:204E6900616E67652120547279206120646966666572656E742076616C75650D0A00496EAB
:204E89007075742076616C7565206973206E6F7420646976697369626C6520627920256487
:204EA9002120547279206120646966666572656E742076616C75650D0A00496E76616C695A
:194EC9006420696E707574206368617261637465720D0A0025640D0A0098
:0330000002300695
:03305F0002300339
:0330030002326036
:20325900438E0C9000002290162DE4F0A3F090169AF0A3F090162FF0A3F074E4C0E0744EB7
:20327900C0E07480C0E012440115811581158190000074C0F07412A3F0E4A3F0A3F0900081
:20329900047410F0E4A3F0A3F0A3F0900020E4F5F012306285821F858320AC1FAD208C82EF
:2032B9008D83C005C0041240AAAA82AB83D004D0059015EFEAF0EBA3F0EA4B70187423C05D
:2032D900E0744FC0E07480C0E01244011581158115810232609015F1E51FF0E520A3F0909F
:2032F90015F3E4F0A3F08C828D831240AAAC82AD839015F5ECF0EDA3F0EC4D70327423C0A6
:20331900E0744FC0E07480C0E01244011581158115819015EFE0FCA3E0FD7B008C828D831B
:203339008BF0123DD79015EFE4F0A3F00232609015F7E51FF0E520A3F09015F9E4F0A3F017
:2033590090162B7402F0E4A3F0743FC0E0744FC0E07480C0E012440115811581158174814E
:20337900C0E0744FC0E07480C0E012440115811581158174A9C0E0744FC0E07480C0E012BE
:20339900440115811581158174D4C0E0744FC0E07480C0E012440115811581158174FAC0E7
:2033B900E0744FC0E07480C0E01244011581158115817421C0E07450C0E07480C0E0124481
:2033D90001158115811581901631E4F0A3F0A3F0A3F0123DB2AD828D04BC4100402B8D04F3
:2033F900EC24A54024901631E0F5F0A3E042F0A3E042F0A3E045F070109016317401F0E43D
:20341900A3F0A3F0A3F00235EDBD2B59901631E0F5F0A3E042F0A3E042F0A3E045F070291E
:20343900C0057447C0E07450C0E07480C0E0124401158115811581D0059016317402F0E44C
:20345900A3F0A3F0A3F00235EDC0057478C0E07450C0E07480C0E012440115811581158114
:20347900D0050235EDBD2D59901631E0F5F0A3E042F0A3E042F0A3E045F07029C0057497D0
:20349900C0E07450C0E07480C0E0124401158115811581D0059016317403F0E4A3F0A3F045
:2034B900A3F00235EDC0057478C0E07450C0E07480C0E0124401158115811581D0050235CE
:2034D900EDBD3F59901631E0F5F0A3E042F0A3E042F0A3E045F07029C00574C3C0E07450DA
:2034F900C0E07480C0E0124401158115811581D0059016317404F0E4A3F0A3F0A3F002357E
:20351900EDC0057478C0E07450C0E07480C0E0124401158115811581D0050235EDBD0A0281
:203539008003BD0D3A901631E0F5F0A3E042F0A3E042F0A3E045F07019C00574CBC0E0748C
:2035590050C0E07480C0E0124401158115811581D005901631E4F0A3F0A3F0A3F08075BDCA
:203579003D57901631E0F5F0A3E042F0A3E042F0A3E045F07028C00574C3C0E07450C0E048
:203599007480C0E0124401158115811581D0059016317405F0E4A3F0A3F0A3F08036C00538
:2035B9007478C0E07450C0E07480C0E0124401158115811581D005801BBD401874CEC0E0EE
:2035D9007450C0E07480C0E0124401158115811581023CB4901631E0F9A3E0FAA3E0FBA381
:2035F900E0FCB9010BBA0008BB0005BC0002803FB9020CBA0009BB0006BC00030236BCB95B
:20361900030CBA0009BB0006BC000302381CB9040CBA0009BB0006BC000302395AB9050C7E
:20363900BA0009BB0006BC0003023BDE0233EB9015F3E0FBA3E0FCC3EB951FEC648085202A
:20365900F063F08095F050329015EFE0FBA3E0FC9015F3E0F9A3E0FAE92BF582EA3CF58382
:20367900EDF09015F3E0FBA3E0FC0BBB00010C9015F3EBF0ECA3F00233EB7C00C005C00478
:2036990074ECC0E07450C0E07480C0E0124401E58124FBF581901631E4F0A3F0A3F0A3F063
:2036B9000233EB9000007420F07403A3F0E4A3F0A3F090000404F0E4A3F0A3F0A3F09000F4
:2036D90014E4F5F012306285821D85831E780179007A007B00C3E8940AE99400EA9400EBF0
:2036F9006480948040030237D0901656E8F0E9A3F0EAA3F0EBA3F0900006E4F5F0C003C040
:2037190002C001C00012423385821785831885F019F51AD000D001D002D003E51724EFF561
:203739001BE5183415F51C851B82851C83E0FCA3E0FD4C7072AC1DAD1E8C828D83C003C0F9
:2037590002C001C0001240AAAC82AD83D000D001D002D003851B82851C83ECF0EDA3F0EC9F
:203779004D70177427C0E07451C0E07480C0E0124401158115811581803DE51724EFFCE562
:20379900183415FD8C828D83A3A3E51DF0E51EA3F08C828D83A3A3A3A3E4F0A3F090162DE2
:2037B900E8F0E9A3F0801008B8000909B900050ABA00010B0236EE90162DE0F5F0A3E04526
:2037D900F0603290162DE0C0E0A3E0C0E0746CC0E07451C0E07480C0E0124401E58124FB83
:2037F900F58190162BE02401F0A3E03400F090162DE4F0A3F0901631E4F0A3F0A3F0A3F02F
:203819000233EB900000740AF0E4A3F0A3F0A3F090000404F0E4A3F0A3F0A3F0900000E43B
:20383900F5F0123062AC82AD83EC4D7018748FC0E07451C0E07480C0E012440115811581A8
:20385900158102394C90162BE0FAA3E0FB8C008D01C3E89AE964808BF063F08095F04003C7
:20387900023937901654ECF0EDA3F0900006C005C004C003C002124213858217858318D04E
:2038990002D003D004D005E51724EFF51DE5183415F51E851D82851E83E0F51BA3E0F51C49
:2038B900E51B451C6078AE1BA91C7F008E8289838FF0C005C004C003C002123DD7D002D038
:2038D90003D004D005851D82851E83E4F0A3F0E51724EFFEE5183415FF8E828F83A3A3E4D4
:2038F900F0A3F08E828F83A3A3A3A3F0A3F0C003C002C004C00574B0C0E07451C0E07480D0
:20391900C0E0124401E58124FBF581D002D0031ABAFF011B90162BEAF0EBA3F0801574EEE8
:20393900C0E07451C0E07480C0E0124401158115811581901631E4F0A3F0A3F0A3F0023323
:20395900EB90169AE0C0E0A3E0C0E07430C0E07452C0E07480C0E0124401E58124FBF581F0
:2039790090162FE0FCA3E0FD90169AE0FAA3E0FBEAC39CFCEB9DFDC004C005744EC0E0743C
:2039990052C0E07480C0E0124401E58124FBF58190169AE0FCA3E0FD90162FECF0EDA3F069
:2039B90090162BE0FCA3E0FD751B00E51BF93395E0FAC3EC99ED64808AF063F08095F0505B
:2039D90003023BD0C2D575F006E51B30E704B2D5F404A430D50AF42401C5F0F43400C5F0C4
:2039F900F51D85F01E24EFF582E51E3415F583E0F8A3E0FF487003023BCBC004C005E51D13
:203A190024EFFEE51E3415FF8E828F83A3A3E0F8A3E0FD8E828F83A3A3A3A3E0F517A3E054
:203A3900F518E8C39517F521ED9518F5228E828F83E0F523A3E0F524E82523FBED3524FC1F
:203A59008B258C26752700AE23AF247C00C005C004C002C001C021C022C017C018C000C031
:203A790005C025C026C027C006C007C004C001C0027464C0E07452C0E07480C0E0124401D9
:203A9900E58124EFF581D001D002C001C00274E9C0E07452C0E07480C0E0124401E5812420
:203AB900FBF581D004D005E51D24EFF525E51E3415F526E51D24EFFEE51E3415FF74042E39
:203AD900F523E43FF524E4F521F522D005D004852382852483E0FEA3E0FFAA21AB22C3EAC4
:203AF9009EEB64808FF063F08095F04003023BA490165A7420F0E4A3F0852182852283C038
:203B190005C00412429FE5828583F0D004D00545F0701DC005C00474CBC0E07450C0E074C6
:203B390080C0E0124401158115811581D004D005852582852683E0FEA3E0FFE5212EF58225
:203B5900E5223FF583E0FF7E00C005C004C007C00674FFC0E07452C0E07480C0E0124401B7
:203B7900E58124FBF581D004D005852582852683E0FEA3E0FFE5212EF582E5223FF583E481
:203B9900F00521B521020522023AE8C005C0047402C0E07453C0E07480C0E012440115814C
:203BB90015811581D004D005852382852483E4F0A3F0051B0239C4901631E4F0A3F0A3F06A
:203BD900A3F00233EB7E007F009015F1E0FCA3E0FD8E028F03C3EA9CEB64808DF063F080A0
:203BF90095F04003023C9190165A7410F0E4A3F08E828F83C007C00612429FE5828583F029
:203C1900D006D00745F070339015EFE0FCA3E0FDEE2CFCEF3DFD7B00C007C006C004C00546
:203C3900C0037407C0E07453C0E07480C0E0124401E58124FAF581D006D0079015EFE0FC24
:203C5900A3E0FDEE2CF582EF3DF583E0FD7C00C007C006C005C004740EC0E07453C0E0742A
:203C790080C0E0124401E58124FBF581D006D0070EBE00010F023BE274CBC0E07450C0E0CE
:203C99007480C0E0124401158115811581901631E4F0A3F0A3F0A3F00233EB7F00C3EF6445
:203CB90080948A4003023260C2D575F006EF30E704B2D5F404A430D50AF42401C5F0F43442
:203CD90000C5F024EFFD741535F0FE8D828E83E0FBA3E0FC7A008B828C838AF0C007C00643
:163CF900C005123DD7D005D006D0078D828E83E4F0A3F00F80A78B
:204EE200E0155370656369667920746865206275666665722073697A65202872616E6765BD
:204F020020333220746F20343830302920646976697369626C652062792031363A200A0D24
:204F2200004661696C656420746F20616C6C6F63617465206D656D6F72790A0D002A204563
:204F42006E74657220616E7920555050455243415345206C657474657220746F2061707052
:204F6200656E64206368617261637465727320696E746F2062756666657220300A0D002AB3
:204F820020507265737320272B2720746F20616C6C6F636174652061206E65772062756699
:204FA200666572200A0D002A20507265737320272D2720746F2072656D6F766520616C6C7F
:204FC2006F63617465642062756666657273200A0D002A20507265737320273F2720746F14
:204FE20020676574207468652068656170207265706F7274200A0D002A20507265737320C6
:20500200273D2720746F2067657420627566666572203020636F6E74656E74200A0D002A3A
:205022002050726573732027402720746F2072657374617274207468652070726F6772615F
:205042006D200A0D00206D6F64652C2073706563696679206275666665722073697A652011
:205062002872616E676520323020746F20383030293A200A0D004669727374206578697440
:20508200207468652063757272656E74206D6F6465200A0D00206D6F64652C2073706563D2
:2050A20069667920627566666572206E756D62657220746F2064657374726F793A200A0DC5
:2050C20000206D6F64650A0D000A0D00206D6F6465202D2072657374617274696E672070D6
:2050E200726F6772616D200A0D000A0D4E6F7420656E6F756768206D656D6F727920746F45
:20510200206C6F61642C206563686F696E6720746F2073657269616C206F75747075742010
:2051220025630A0D004661696C656420746F20616C6C6F63617465206D656D6F72792066E2
:205142006F72206275666665722C207472792064656C6574696E6720736F6D652075736976
:205162006E6720272D27200A0D00416C6C6F6361746564206D656D6F727920666F7220625B
:20518200756666657220232564200A0D004E6F7420616C6C6F77656420746F2072656D6FE3
:2051A20076652062756666657220300A0D00467265656420627566666572202325642C2079
:2051C20074727920273F2720746F2067657420696E666F206F66206578697374696E6720F2
:2051E2006275666665727320200A0D004E6F207375636820627566666572206578697374F2
:20520200732C2074727920273F2720746F2067657420696E666F206F6620657869737469E7
:205222006E672062756666657273200A0D00546F74616C206368617261637465727320638C
:205242006F756E743A202564200A0D0053696E6365206C61737420273F273A202564200AEC
:205262000D00427566666572202564202D2D3E0A0D20537461727420616464726573733ADF
:205282002025700A0D20456E6420616464726573733A2025700A0D20416C6C6F63617465B8
:2052A200642073697A653A2025750A0D2053746F726167652063686172616374657220635D
:2052C2006F756E74733A2025750A0D204672656520737061636520617661696C61626C65F9
:2052E2003A2025750A0D0042756666657220256420636F6E74656E743A200A0D002563008A
:105302000A0D0A0D000A0D2570203A0020257800AA
:203D0F00AF83E582901635F0EFA3F03099FD901635E0FEA3E0FF8E99C2998E828F832210D7
:203D2F00980280FBAE997F008E828F8322AFF0AE83E582901637F0EEA3F0EFA3F090163771
:203D4F00E0FDA3E0FEA3E0FF7B007C008D828E838FF0124E2DFA60360DBD00010E9016370B
:203D6F00EDF0EEA3F0EFA3F08A017A0089828A83C007C006C005C004C003123D0FD003D05D
:203D8F0004D005D006D0070BBB00C10C80BE901637EDF0EEA3F0EFA3F00BBB00010C8B8220
:203DAF008C8322123D2EAE8290169AE02401F0A3E03400F0EEFD3395E0FF8D828F83C006C1
:083DCF00123D0FD0068E822286
:02531D0000008E
:203DD700AFF0AE83E58290163AF0EEA3F0EFA3F090163AE0FDA3E0FEA3E090163AE0F5F05C
:203DF700A3E045F070012290163FE4F0A3F090164CE0FBA3E0FC90163DEBF0ECA3F09016E6
:203E170041744CF07416A3F090163DE0FBA3E0FC4B60418B018C02C003C0048D008E04C3D1
:203E3700E998EA9CD004D003502A90163FEBF0ECA3F074022BFBE43CFC901641EBF0ECA3FB
:203E5700F08B828C83E0FBA3E0FC90163DEBF0ECA3F080B490163DE0FEA3E0FF90163AE071
:203E7700FBA3E0FCA3E0EB24FEFBEC34FFFC74022BFAE43CFD8A828D83EEF0EFA3F0901631
:203E970041E0F8A3E0F988828983EBF0ECA3F08B828C83E0F8A3E0F9EEB50033EFB5012FEC
:203EB70088828983A3A3E0FEA3E0FF8A828D83EEF0EFA3F08B828C83E0FEA3E0FF8E828F98
:203ED70083E0FEA3E0FF8B828C83EEF0EFA3F090163FE0FEA3E0FF4E603C8E828F83E0F843
:203EF700A3E0F9E8B5032FE9B5042B8B828C83E0FBA3E0FC8E828F83EBF0ECA3F074022EFD
:173F1700FEE43FFF8A828D83E0FAA3E0FD8E828F83EAF0EDA3F0225F
:203F2E00AF82AE83ADF0FC901647EFF0EEA3F0EDA3F0ECA3F090164BE4F0901647E0FCA3FB
:203F4E00E0FDA3E0FEA3E0FF7B00901643E0F535A3E0F536A3E0F537A3E0F538235401FA86
:203F6E007074C003E5352535F8E53633F9E53733FAE53833FB901643E8F0E9A3F0EAA3F08B
:203F8E00EBA3F0901643E0F535A3E0F536A3E0F537A3E0F538C3EC9535ED9536EE9537EFBB
:203FAE009538D0035027E538C313F538E53713F537E53613F536E53513F535901643F0E5F3
:203FCE0036A3F0E537A3F0E538A3F080090B90164BEBF0023F5890164BE0FF901647E0FB1A
:203FEE00A3E0FCA3E0FDA3E0FE901643E0F535A3E0F536A3E0F537A3E0F538C3EB9535ECCF
:20400E009536ED9537EE95384017901647EBC39535F0EC9536A3F0ED9537A3F0EE9538A3B3
:20402E00F0901643E0FBA3E0FCA3E0FDA3E0C313FEED13FDEC13FCEB13901643F0ECA3F01A
:20404E00EDA3F0EEA3F08F061FEE708F901647E0FCA3E0FDA3E0FEA3E08C828D838EF022A5
:06303500E478FFF6D8FD6F
:203013007902E94400601B7A0190531D789A75A016E493F2A308B8000205A0D9F4DAF27541
:02303300A0FFFC
:20406E0090164C740FF07400A3F0904EE2E493FE740193FF1EBEFF011FEE240FFEEF34004D
:20408E00FF90000FEEF0EFA3F090164CE0FEA3E0FF8E828F83A3A3E4F0A3F022AF83E58238
:2040AE0090164EF0EFA3F090164CE0F5F0A3E045F0700312406E90164EE0FEA3E0FF4E60E8
:2040CE000E74022EFCE43FFDC3EC9EED9F50049000002290164E74022EF0E43FA3F0901641
:2040EE004EE0FEA3E0FFC3EE9404EF9400500990164E7404F0E4A3F090164CE0FEA3E0FFBA
:20410E00901650EEF0EFA3F0901652744CF07416A3F0901650E0FEA3E0FF4E700302420F0C
:20412E008E828F83E0FCA3E0FD8C028D038E008F01EAC398FAEB99FB8A008B0190164EE00F
:20414E00F528A3E0F529C3E89528E9952950030241EC74042528F8E43529F9C3EA98EB9941
:20416E00404C8E028F03E5282AFAE5293BFB8A828B83ECF0EDA3F074022AFCE43BFD8E82D0
:20418E008F83A3A3E0F8A3E0F98C828D83E8F0E9A3F0901652E0FCA3E0FD8C828D83EAF0A7
:2041AE00EBA3F08E828F83EAF0EBA3F0801C901652E0FCA3E0FD8E828F83A3A3E0FAA3E044
:2041CE00FB8C828D83EAF0EBA3F0901650E0FCA3E0FD74022CFCE43DFD8C828D832274029C
:2041EE002EFEE43FFF901652EEF0EFA3F08E828F83E0FEA3E0FF901650EEF0EFA3F00241F0
:05420E002090000022D9
:20421300AA83AB828BF0901654E0A4F8A9F08AF0E0A429F98BF0A3E0A429F58388822222F6
:20423300A882A983AAF0FB88F0901656E0A4FCADF089F0E0A42DFDE435F0FE88F0A3E0A422
:204253002DFDE5F03EFEE433FF89F0E0A42EFEE5F03FFF88F0A3E0A42EFEE5F03FFF8AF066
:20427300901656E0A42EFEE5F03FFF8BF0E0A42FFF8AF0A3E0A42FFF89F0A3E0A42FFF881A
:0C429300F0A3E0A42F8EF08D838C82221B
:20429F00AF83E58290165CF0EFA3F090165CE0FEA3E0FF30E709C3E49EFCE49FFD80048E9D
:2042BF00048F0590165AE0FEA3E0FF30E709C3E49EFAE49FFB80048E028F0390165EEAF086
:2042DF00EBA3F08C828D83124307AE82AF8390165CE0A3E030E70CC3E49EFCE49FFD8C820E
:0842FF008D83228E828F832241
:20430700AF83E582901660F0EFA3F0901662E4F0901660E0FEA3E0FF7D0090165EE0FBA344
:20432700E0FC235401FA7036EB2BFBEC33FC90165EEBF0ECA3F090165EE0FBA3E0FCC3EEE9
:204347009BEF9C5011ECC313CB13CBFC90165EEBF0ECA3F080080D901662EDF080BC9016AE
:2043670062E0FF901660E0FDA3E0FE90165EE0FBA3E0FCC3ED9BEE9C400B901660EDC39BC2
:20438700F0EE9CA3F090165EE0FDA3E0C313CD13CDFE90165EEDF0EEA3F08F061FEE70C3ED
:0C43A700901660E0FEA3E08E82F58322F9
:20303B007800E84400600A790075A000E4F309D8FC789AE84416600C7917900000E4F0A3CE
:04305B00D8FCD9FACA
:2043B300C0348581347E008E83123D0FD03422AFF0AE83E582901664F0EEA3F0EFA3F090E5
:2043D3001664E0FDA3E0FEA3E0FF901663E0FC901678E4F0A3F0A3F090167BEDF0EEA3F0F4
:2043F300EFA3F090167EECF09043B3024507C034E581F53424FBFF901678E4F0A3F0A3F09B
:20441300E53424FBF890167BE6F008E6A3F008E6A3F090167EEFF09043B3124507D0342253
:20443300E582901674F0E0FF90166AE0C0E0A3E0C0E0A3E0C0E012444E800D901668E0C064
:20445300E0A3E0C0E08F8222158115811581901672E02401F0A3E03400F022E582901675F9
:20447300F0E02430FF24C6500D74072FFF901667E060034307208F82024433E5829016764F
:20449300F0E0FFC4540FF582C00712446ED00753070F8F8202446EE582901677F090166D85
:2044B300E0FCA3E0FDA3E0FEA3E0FF901671E0FB901677E0FA79208B00E828F535EF2354DD
:2044D300014535FBEC2CFCED33FDEE33FEEF33FFC3EB9A4007EBC39AFB43040119E970D77F
:2044F30090166DECF0EDA3F0EEA3F0EFA3F0901671EBF022AF83E58290167FF0EFA3F09063
:20451300167FE0FEA3E0FF901668EEF0EFA3F0901678E0FDA3E0FEA3E0FF90166AEDF0EE4C
:20453300A3F0EFA3F0901672E4F0A3F090167BE0FDA3E0FEA3E0FF8D828E838FF0124E2DA7
:20455300FC90167B74012DF0E43EA3F0EFA3F0EC7003024E09BC25028003024E01901681CC
:20457300E4F0901682F0901683F0901684F0901685F0901686F0901687F0901688F09016F1
:204593008AF090168BF0A3F090168D14F0A3F090167BE0FDA3E0FEA3E0FF8D828E838FF070
:2045B300124E2DFBA3AD82AE8390167BEDF0EEA3F0EFA3F0901691EBF0BB25088B821244FF
:2045D3003302453FBB300050030246A0EB24C650030246A090168DE0F52AA3E0F52B74FF91
:2045F300B52A63B52B60C005C006C00790168BE0FAA3E0FF901654EAF0EFA3F090000AC097
:2046130005C003124213AE82AF83D003D0058B027D00EA2EFEED3FFFEE24D0FEEF34FFFF02
:2046330090168BEEF0EFA3F0D007D006D00590168BE0F5F0A3E045F060030245AD90168227
:204653007401F00245ADC005C006C007901654E52AF0E52BA3F090000AC006C005C0031206
:204673004213AA82AF83D003D005D0067E00EB2AFAEE3FFFEA24D0FAEF34FFFF90168DEA27
:20469300F0EFA3F0D007D006D0050245AD901691E0FBBB2E2FC005C006C00790168DE0FA96
:2046B300A3E0FFBAFF05BFFF028009D007D006D0050245ADD007D006D00590168DE4F0A3BC
:2046D300F00245ADBB61004014EB2485400F90169174DF5BF09016677401F08005901667B7
:2046F300E4F0901691E0FBBB20028075BB2B028067BB2D028059BB4202806FBB4302807C73
:20471300BB4403024997BB46030249BDBB48030245ADBB4903024997BB4A030245ADBB4CB0
:20473300028050BB4F030249A5BB5003024905BB53028077BB54030245ADBB55030249AD21
:20475300BB58030249B5BB5A030245AD0249C59016817401F00245AD9016837401F00245BF
:20477300AD9016847401F00245AD9016867401F00245AD9016877401F00245AD901686E0DF
:20479300600E90167EE014F9F0901691E7F0800F90167EE024FEFFF08F01901691E7F090B7
:2047B3001691E0F5821244330249D490167EE024FDFFF08F01870509870609870719199021
:2047D300166DEDF0EEA3F0EFA3F08D828E838FF0124E1585822A85832B90168DE0FAA3E05B
:2047F300FDBAFF0DBDFF0A90168DE52AF0E52BA3F0901681E0704B90168BE0FAA3E0FDC338
:20481300E52A9AE52B9D503A90168BEAC3952AF0ED952BA3F090168BE0FAA3E0FD8A068D30
:20483300071ABAFF011DEE4F6010758220C005C002124433D002D00580E390168BEAF0ED97
:20485300A3F090168DE0F52DA3E0F52E90166DE0FAA3E0FDA3E0FF8A828D838FF0124E2DC0
:20487300F52C603CC3E4952D7480852EF063F08095F0502C152D74FFB52D02152E852C8285
:2048930012443390166DE0FAA3E0FDA3E0FF0ABA00010D90166DEAF0EDA3F0EFA3F080ACA0
:2048B300901681E070030249D490168BE0FEA3E0FFC3E52A9EE52B9F40030249D490168B09
:2048D300EEC3952AF0EF952BA3F090168BE0FEA3E0FF8E028F051EBEFF011FEA4D700302C7
:2048F30049CC758220C007C006124433D006D00780E090167EE024FDFDF08D01872F098770
:2049130030098731191990166DE52FF0E530A3F0E531A3F090166FE0FDBD800040089016DC
:20493300917443F08020BD600040089016917450F08013BD400040089016917449F08006FA
:204953009016917458F0901691E0FDF582C00512443375823A124433758230124433758217
:2049730078124433D005BD4902800EBD5002800990166EE0F58212448E90166DE0F5821255
:20499300448E803D9016857401F090168A740AF0802F90168A7408F0802790168A740AF0B7
:2049B300801F90168A7410F080179016887401F0800F8B82124433800890168BEEF0EFA329
:2049D300F0901688E0607190167EE024FCFFF08F018703098705098706098707191919902B
:2049F300166DEBF0EDA3F0EEA3F0EFA3F090166D7412F07453A3F07480A3F090166DE0F571
:204A13002FA3E0F530A3E0F5317401252FFAE43530FBAF3190166DEAF0EBA3F0EFA3F085AA
:204A33002F828530838531F0124E2DFF700302453F8F8212443380C390168AE070030245A8
:204A53003F901686E0604790167EE014F9F087077E007D007B0090166DEFF0EEA3F0EDA349
:204A7300F0EBA3F0901685E06003024B1790166DE0FBA3E0A3E0A3E07D007E007F0090164C
:204A93006DEBF0EDA3F0EEA3F0EFA3F08076901687E0602890167EE024FCFFF08F01870380
:204AB30009870509870609870719191990166DEBF0EDA3F0EEA3F0EFA3F0804890167EE099
:204AD30024FEFFF08F01870609870719EF3395E0FDFB90166DEEF0EFA3F0EDA3F0EBA3F0E5
:204AF300901685E0701E90166DE0FBA3E0FDA3E0A3E07E007F0090166DEBF0EDA3F0EEA39A
:204B1300F0EFA3F0901685E0604190166DE0FBA3E0FDA3E0FEA3E0FF30E72B90166DE0FBC3
:204B3300A3E0FDA3E0FEA3E0FFC3E49BFBE49DFDE49EFEE49FFF90166DEBF0EDA3F0EEA323
:204B5300F0EFA3F08005901685E4F09016897401F090168AE0F52D753297753316E4F52A87
:204B7300F52B901671E4F0852D821244AA901689E07033901671E0C454F0F52F901671E017
:204B9300C4540F452FF52F853282853383E0FFE52F4207853282853383EFF0153274FFB5D1
:204BB30032021533800C901671E0FF853282853383F0052AE4B52A02052B901689E0B40198
:204BD30000E433F090166DE0FAA3E0FBA3E0FEA3E0FFEA4B4E4F708A901698E532F0E53324
:204BF300A3F090168FE52AF0E52BA3F090168BE0F5F0A3E045F0700990168B7401F0E4A3F4
:204C1300F0901682E0FFE07047901681E07041852A32852B3390168BE0FAA3E0FBC007AF78
:204C3300320F8F067F00C3EE9AEF9BD0075019758220C007C003C002124433D002D003D096
:204C5300071ABAFF011B80D590168BEAF0EBA3F0901685E0602075822DC007124433D00797
:204C730090168BE024FFFDA3E034FFFE90168BEDF0EEA3F0805690168FE0F5F0A3E045F025
:204C9300604A901683E0602075822BC007124433D00790168BE024FFFDA3E034FFFE9016FA
:204CB3008BEDF0EEA3F08024901684E0601E758220C007124433D00790168BE024FFFDA3BA
:204CD300E034FFFE90168BEDF0EEA3F0901681E0704890168FE0F532A3E0F53390168BE06A
:204CF300FAA3E0FBC0078A068B071ABAFF011BC3E5329EE5339FD0075053EF60067D307E28
:204D13000080047D207E008D82C007C003C002124433D002D003D00780CA90168BE0FEA385
:204D3300E0FF90168FE0F532A3E0F533C3E5329EE5339F500F90168BEEC39532F0EF9533BC
:204D5300A3F0801190168BE4F0A3F0800890168BEAF0EBA3F0901698E0FEA3E0FF90168FA0
:204D7300E0F532A3E0F533AA32AD33153274FFB532021533EA4D6045901689E0B40100E443
:204D930033F0901689E070140EBE00010F8E828F83E0C4540FFD901671F0800E8E828F8391
:204DB300E0FD53050F901671EDF0901671E0F582C007C00612446ED006D00780AA901681EB
:204DD300E0700302453F90168BE0FEA3E0FF8E038F051EBEFF011FEB4D700302453F75820E
:204DF30020C007C006124433D006D00780E08C8212443302453F901672E0FEA3E08E82F5C2
:024E13008322F8
:0B5312003C4E4F20464C4F41543E00E3
:184E1500AA82AB83124E2D6003A380F8C3E5829AF582E5839BF5832248
:0D300600758138123259E5826003023003F3
:1C4E2D0020F71430F6148883A88220F507E6A88375830022E280F7E49322E02294
:00000001FF
