:203062007F00C00774E1C0E07447C0E0123ECD15811581D0077D007E00C3ED9402EE648085
:203082009480400302312FC007C006C005123EB4AC82D005D006D007900000ECF08C03BBB9
:2030A200300040108C03EB24C64009EC24D0900000F08052900000E0FCBC4100400EEC24E8
:2030C200B9400990000074C92CF0803A900000E0FCBC6100400EEC2499400990000074A9D3
:2030E2002CF08022900000E0FCBC0A028003BC0D15C00774E4C0E07447C0E0123ECD1581AE
:203102001581D00780278D047401C39C25E025E0FC900000E0FB8CF005F0EB800225E0D50B
:20312200F0FBFC42070DBD00010E02307BC00774E4C0E07447C0E0123ECD15811581D0079D
:203142008F822274E7C0E07447C0E0123ECD15811581123062E582FF24F85011741AC0E0E6
:203162007448C0E0123ECD1581158180D6C0077441C0E07448C0E0123ECD1581158112304F
:2031820062AE82C006747DC0E07448C0E0123ECD15811581123062AD82D006D0079000018E
:2031A200EFF0900002EEF08D8212342F74A8C0E07448C0E0123ECD158115812274F4C0E0AF
:2031C2007448C0E0123ECD15811581123062E582FF24F85011741AC0E07448C0E0123ECD1A
:2031E2001581158180D6C0077426C0E07449C0E0123ECD15811581123062AE82D007900069
:2032020004EEF08F82C0061234B3AF82D0067D007C00C007C005C006C0047460C0E07449B3
:20322200C0E0123ECDE58124FAF58174A8C0E07448C0E0123ECD158115812274F4C0E074D6
:2032420048C0E0123ECD15811581123062E582FF24F85011741AC0E07448C0E0123ECD15F8
:2032620081158180D6C007747AC0E07449C0E0123ECD15811581123062AE82C00674A5C071
:20328200E07449C0E0123ECD15811581123062AD82D006D007C3EE9D401174CEC0E07449E8
:2032A200C0E0123ECD158115818090EDC39EFD900006EEF0900007EDF08F82C006C0051232
:2032C20035C5AC82AF83D005D0067A007B008D00790008B8000109C3EA98EB648089F06332
:2032E200F08095F0400302338B753C10753D008A828B83C007C006C005C004C003C002129A
:2033020047ABE5828583F0D002D003D004D005D006D00745F070308E00F9C007C006C005B1
:20332200C004C003C002C000C0017418C0E0744AC0E0123ECDE58124FCF581D002D003D0A9
:2033420004D005D006D007EA2CF582EB3FF583E0F87900C007C006C005C004C003C002C00A
:2033620000C0017421C0E0744AC0E0123ECDE58124FCF581D002D003D004D005D006D007E3
:203382000E0ABA00010B0232D074E4C0E07447C0E0123ECD1581158174A8C0E07448C0E095
:2033A200123ECD15811581227427C0E0744AC0E0123ECD15811581123B5574A8C0E07448A4
:0A33C200C0E0123ECD1581158122F6
:2047E1003078000A0D00506C6561736520656E74657220626C6F636B202320696E2068650F
:204801007820666F726D617420746F2073746F726520646174610A0D00506C6561736520DB
:20482100656E74657220626C6F636B202320696E2072616E6765206F6620302D370A0D0007
:20484100506C6561736520656E746572206164647265737320696E2068657820666F726D89
:20486100617420746F2073746F726520746865206461746120627974650A0D00506C65618A
:20488100736520656E746572206461746120696E2068657820666F726D617420746F2073AC
:2048A100746F72650A0D003D3D3D3D3D3D3D3D3D3D3D3D3D3D3D3D3D3D3D3D3D3D3D3D3D31
:2048C1003D3D3D3D3D3D3D3D3D3D3D3D3D3D3D3D3D3D3D3D3D3D3D3D3D3D3D3D3D3D3D3D37
:2048E1003D3D3D3D3D3D3D3D3D3D3D3D3D3D3D3D0A0D00506C6561736520656E7465722018
:20490100626C6F636B202320696E2068657820666F726D617420746F20726561642064619F
:2049210074610A0D00506C6561736520656E746572206164647265737320696E2068657890
:2049410020666F726D617420746F2067657420746865206461746120627974650A0D0052F2
:2049610065616420627974652D2D3E20307825783A20307825780A0D00506C65617365200B
:20498100656E746572207374617274206164647265737320696E2068657820666F726D6113
:2049A100740A0D00506C6561736520656E74657220656E64206164647265737320696E205F
:2049C10068657820666F726D61740A0D00496E76616C696420616464726573732072616EA3
:2049E10067652C20656E6420616464726573732073686F756C642062652067726561746533
:204A010072207468616E20737461727420616464726573730A0D000A0D30782578203A0037
:134A21002030782578005265736574206D6F64650A0D003E
:2033CC00AE82AF838E048F051EBEFF011FEC4D60030080F022AF827D007E00C3ED9408EECA
:2033EC0064809480503CEF23540124FF9293D292900002C007C006C0051233CCD005D0068A
:20340C00D007C2928F04EC2CFF900000C007C006C0051233CCD005D006D0070DBD00BC0EC2
:20342C0080B922E582900003F0D292D2939000021233CCC2939000021233CCC292900001F2
:20344C00E025E0FF74A04FF5821233E1D293D2929000021233CCC2929000001233CC90008B
:20346C0002E0F5821233E1D293D2929000021233CCC2929000001233CC900003E0F5821264
:20348C0033E1D293D2929000021233CCC2929000011233CCC2939000011233CCD2929000BF
:2034AC00001233CCD29322E582900005F0D292D2939000021233CCC2939000021233CCC256
:2034CC0092900005E025E0FF74A04FF582C0071233E1D293D2929000031233CCC2929000BD
:2034EC00001233CC900004E0F5821233E1D293D2929000021233CCC292D2939000021233A2
:20350C00CCD2929000001233CCC2939000021233CCD007C29274A14FF5821233E1D29390B5
:20352C0000021233CCD2929000021233CCC2929000021233CC7F007D007E00C3ED9408EEBA
:20354C0064809480503A8F04EC2CFCD292900002C006C005C0041233CCD004D005D006A2BF
:20356C0093E4334CFFC292900001C007C006C0051233CCD005D006D0070DBD00BE0E80BBAF
:20358C00D293900002C0071233CCD2929000021233CCC292C2939000021233CCD292900009
:2035AC00021233CCD2939000021233CCC2929000021233CCD0078F8222E582900008F09064
:2035CC000009E4F090000AF090000BF090000CF090000DF090000EF090000FF0900010F027
:2035EC00900011F0900012F0900013F0900014F0900015F0900016F0900017F0900018F01B
:20360C00900019F090001AF090001BF090001CF090001DF090001EF090001FF0900020F0BA
:20362C00900021F0900022F0900023F0900024F0900025F0900026F0900027F0900028F05A
:20364C00900029F090002AF090002BF090002CF090002DF090002EF090002FF0900030F0FA
:20366C00900031F0900032F0900033F0900034F0900035F0900036F0900037F0900038F09A
:20368C00900039F090003AF090003BF090003CF090003DF090003EF090003FF0900040F03A
:2036AC00900041F0900042F0900043F0900044F0900045F0900046F0900047F0900048F0DA
:2036CC00900049F090004AF090004BF090004CF090004DF090004EF090004FF0900050F07A
:2036EC00900051F0900052F0900053F0900054F0900055F0900056F0900057F0900058F01A
:20370C00900059F090005AF090005BF090005CF090005DF090005EF090005FF0900060F0B9
:20372C00900061F0900062F0900063F0900064F0900065F0900066F0900067F0900068F059
:20374C00900069F090006AF090006BF090006CF090006DF090006EF090006FF0900070F0F9
:20376C00900071F0900072F0900073F0900074F0900075F0900076F0900077F0900078F099
:20378C00900079F090007AF090007BF090007CF090007DF090007EF090007FF0900080F039
:2037AC00900081F0900082F0900083F0900084F0900085F0900086F0900087F0900088F0D9
:2037CC00900089F090008AF090008BF090008CF090008DF090008EF090008FF0900090F079
:2037EC00900091F0900092F0900093F0900094F0900095F0900096F0900097F0900098F019
:20380C00900099F090009AF090009BF090009CF090009DF090009EF090009FF09000A0F0B8
:20382C009000A1F09000A2F09000A3F09000A4F09000A5F09000A6F09000A7F09000A8F058
:20384C009000A9F09000AAF09000ABF09000ACF09000ADF09000AEF09000AFF09000B0F0F8
:20386C009000B1F09000B2F09000B3F09000B4F09000B5F09000B6F09000B7F09000B8F098
:20388C009000B9F09000BAF09000BBF09000BCF09000BDF09000BEF09000BFF09000C0F038
:2038AC009000C1F09000C2F09000C3F09000C4F09000C5F09000C6F09000C7F09000C8F0D8
:2038CC009000C9F09000CAF09000CBF09000CCF09000CDF09000CEF09000CFF09000D0F078
:2038EC009000D1F09000D2F09000D3F09000D4F09000D5F09000D6F09000D7F09000D8F018
:20390C009000D9F09000DAF09000DBF09000DCF09000DDF09000DEF09000DFF09000E0F0B7
:20392C009000E1F09000E2F09000E3F09000E4F09000E5F09000E6F09000E7F09000E8F057
:20394C009000E9F09000EAF09000EBF09000ECF09000EDF09000EEF09000EFF09000F0F0F7
:20396C009000F1F09000F2F09000F3F09000F4F09000F5F09000F6F09000F7F09000F8F097
:20398C009000F9F09000FAF09000FBF09000FCF09000FDF09000FEF09000FFF0900100F036
:2039AC00900101F0900102F0900103F0900104F0900105F0900106F0900107F0900108F0CF
:2039CC00D292D2939000021233CCC2939000021233CCC292900008E025E0FF74A04FF582CD
:2039EC00C0071233E1D293D2929000031233CCC2929000001233CC900006E0F5821233E159
:203A0C00D293D2929000021233CCC292D2939000021233CCD2929000001233CCC2939000E8
:203A2C00021233CCD007C29274A14FF5821233E1D2939000021233CCD2929000021233CC2C
:203A4C00C2929000021233CC900007E0FFE4F508F5098F037C0074012BF9E43CFAC3E5089D
:203A6C0099E50964808AF063F08095F04003023B1FE4F50AF50BC3E50A9408E50B648094C5
:203A8C00805058D293E5082409F8E5093400FA88828A83E025E088828A83F0D29290000167
:203AAC00C007C004C003C002C0001233CCD000D00288828A83E0F9A293E433420188828A64
:203ACC0083E9F0C2929000011233CCD003D004D007050AE4B50A9F050B809BC3E5089BE55E
:203AEC000964808CF063F08095F0501CC293900000C0071233CCD2929000021233CCC29275
:203B0C009000011233CCD0070508E4B508020509023A5ED2939000021233CCD292900002CA
:203B2C001233CCC292C2939000021233CCD2929000021233CCD2939000021233CCC2929029
:203B4C0000021233CC90000922D292D2939000021233CCC2939000001233CCC29290000045
:203B6C001233CC7E007F00C3EE9409EF648094805021D293D292900002C007C0061233CC8C
:203B8C00C2929000011233CCD006D0070EBE00D70F80D4D2929000001233CCC29390000086
:203BAC001233CCC292C2939000011233CCD2929000001233CCD2939000001233CCC292221C
:203BCC00E582900109F0D292D2939000021233CCC2939000021233CCC2927582741233E19F
:203BEC00D293D2929000021233CCC2929000001233CC900109E0F5821233E1D293D29290E8
:203C0C0000021233CCC2929000011233CCC2939000011233CCD2929000001233CCD293220C
:203C2C0090010AE4F0D292D2939000021233CCC2939000021233CCC2927582751233E1D2ED
:203C4C0093D2929000031233CCC2929000001233CC7E007F00C3EE9408EF64809480503611
:203C6C00D29390010AE025E0F0D292900001C007C0061233CC90010AE0FDA293E43390017B
:203C8C000A4DF0C2929000011233CCD006D0070EBE00C20F80BFC2939000011233CCD292F7
:203CAC009000011233CCD2939000011233CCC2929000011233CCC29390010AE0F5822212DE
:153CCC003C2CAF82900000C0071233CCD007EFF4F582023BCCA8
:0330000002300695
:03305F0002300339
:03300300023CE8A4
:203CE100438E0C90000022123DB8123EB4AF82C3EF648094B0400B74B98FF063F08095F0CF
:203D01005013C3EF648094C1402074DA8FF063F08095F04015C0077436C0E0744AC0E012F9
:203D21003ECD15811581D0078013C007745DC0E0744AC0E0123ECD15811581D007BF610209
:203D41008030BF62028042BF6302805FBF6502801CBF68028012BF72028008BF77501231C9
:203D610045804B1231BE804612323D80411233AA803C7460C0E0744AC0E0123ECD158115E4
:203D810081123062123BCC8025123C2CAF827E00C007C006748BC0E0744AC0E07480C0E0F8
:173DA10012404BE58124FBF5818003123CCB9000031233CC023CEB0A
:204A34008813506C6561736520656E74657220636F6D6D616E647320696E20736D616C6C8D
:204A54002063617365730A0D000A0D00506C6561736520656E746572206461746120696E9C
:204A74002068657820666F726D617420746F2073746F72650A0D0020526563656976656466
:0B4A940020646174612025780A0D0089
:203DB800749FC0E0744AC0E0123ECD1581158174EBC0E0744AC0E0123ECD15811581741364
:203DD800C0E0744BC0E0123ECD158115817434C0E0744BC0E0123ECD158115817454C0E02B
:203DF800744BC0E0123ECD158115817475C0E0744BC0E0123ECD15811581749BC0E0744B64
:203E1800C0E0123ECD1581158174C2C0E0744BC0E0123ECD1581158174E8C0E0744BC0E0C8
:173E3800123ECD15811581749FC0E0744AC0E0123ECD1581158122AE
:204A9F002A2A2A2A2A2A2A2A2A2A2A2A2A2A2A2A2A2A2A2A2A2A2A2A2A2A2A2A2A2A2A2AB7
:204ABF002A2A2A2A2A2A2A2A2A2A2A2A2A2A2A2A2A2A2A2A2A2A2A2A2A2A2A2A2A2A2A2A97
:204ADF002A2A2A2A2A2A2A2A2A0A0D0043686F6F736520746865206F7074696F6E732066B2
:204AFF00726F6D2062656C6F77206D656E75203A200A0D005B775D2E20546F205752495404
:204B1F0045206279746520696E746F20454550524F4D0A0D005B725D2E20546F2052454151
:204B3F004420627974652066726F6D20454550524F4D0A0D005B685D2E20546F20736565DD
:204B5F00204845582064756D70206F6620454550524F4D0A0D005B655D2E20546F20646F46
:204B7F0020736F667477617265207265736574206F6620454550524F4D0A0D005B615D2E0D
:204B9F0020546F205752495445206279746520696E746F20492F4F20657870616E6465725C
:204BBF000A0D005B625D2E20546F205245414420627974652066726F6D20492F4F206578CC
:204BDF0070616E6465720A0D005B635D2E20546F67676C6520706F72742076616C75650A2E
:024BFF000D00A7
:203E4F00AE82AF833099FD8E99C2998E828F832210980280FBAE997F008E828F8322AD8207
:203E6F00AE83AFF07B007C008D828E838FF012478FFA602B0DBD00010E8A017A0089828AED
:203E8F0083C007C006C005C004C003123E4FD003D004D005D006D0070BBB00CC0C80C98B7D
:1E3EAF00828C83A322123E5FAE82EEFD3395E0FF8D828F83C006123E4FD0068E8222A0
:06303500E478FFF6D8FD6F
:203013007900E94400601B7A00904C0C789375A014E493F2A308B8000205A0D9F4DAF27565
:02303300A0FFFC
:203ECD00C00C85810CE50C24FDF8868318868218E493A324DB600C24256005123FBB80F0FD
:203EED00023FD3D2D5E493A3C083C082B4731486F01886831886821812478F6054A3123FC1
:203F0D00BB80F5B4630818E618123FBB8043B46417E630E74618E6F42401F608E6F43400CB
:203F2D00F6742D123FBB8033B4782D868318868218E4123FACE583123FABE583123FACE5F5
:203F4D0082123FABE582123FAC30D5057430123FBBD082D083023EDDB475F6E6FA18E6F900
:203F6D00187C107D27123F96FF7CE87D03123F96C4F5837C647D00123F964283E975F00A9E
:203F8D0084C445F0F582EF80A97B000BC3E99CF9EA9DFA50F61BE92CF9EA3DFAEB22C4540B
:203FAD000F700320D51FC2D52490D43440D4C083C082C0F0F582E8C0E0123E4FD0E0F8D0AC
:093FCD00F0D082D08322D00C2236
:203FD600E53C453D60467A01E53C25E0F53CE53D334012F53DE582953CE583953D40030A18
:203FF60080E6C3E53D13F53DE53C13F53CC3E582953CF5F0E583953D4005F58385F082C325
:0D401600E53D13F53DE53C13F53CDAE122F4
:20303B007800E84400600A790075A000E4F309D8FC7893E84414600C7915900000E4F0A3D9
:04305B00D8FCD9FACA
:20402300C00C85810C7E008E83123E4FD00C2285821E85831F85F020E4F51BF51CF51D85F6
:204043000D2190402302410CC00CE581F50C24FBFF8F21E4F51BF51CF51DE50C24FBF88647
:104063001E08861F08862090402312410CD00C2284
:20407300AF82C011C012C0131240808007C00FC0108F82221581158115810519E4B51902C7
:20409300051A22AF8274302FFF24C6500B74072FFFE50E60034307208F82024073E582FFEF
:2040B300C4540FF582C007124096D007740F5FF58202409685823CAB14AC15AD16AE17AAA3
:2040D30018753E208A07EF2FF53DEE235401453DFAEB2BFBEC33FCED33FDEE33FEC3EA9575
:2040F3003C4008EAC3953CFA430301D53ED68B148C158D168E178A182285820F8583108582
:204113001B11851C12851D13E4F519F51AAD1EAE1FAF208D828E838FF012478FFC74012D6B
:20413300F51EE43EF51F8F20ECFF7003024753BF2502800302474BE4F522F523F524F52537
:20415300F526F527F528F529F52BF538F539752CFF752DFF851E32851F3385203485328260
:204173008533838534F012478FF535A385823285833385321E85331F8534207425B535080F
:20419300853582124073808574D025355068E53524C6406274FFB52C36B52D3385383C85ED
:2041B300393D90000A124772858236858337AA357E00EA2536FAEE3537FEEA24D0F538EEA8
:2041D30034FFF539E53845397093752301808E852C3C852D3D90000A124772AE82AB83AADD
:2041F300357D00EA2EFEED3BFBEE24D0F52CEB34FFF52D024170742EB5351574FFB52C05D1
:20421300B52D028003024170E4F52CF52D024170749F2535500EE535248540085335DF75E5
:204233000E018003750E007420B535030242D6742BB535030242D0742DB5350280797442DF
:20425300B535030242DC7443B535030242E87444B5350302446C7446B535030244837448EB
:20427300B535030241707449B5350302446C744AB53503024170744CB535028052744FB5DB
:2042930035030244747450B535030244017453B5350280627454B535030241707455B53571
:2042B300030244797458B5350302447E745AB535030241700244887522010241707524018B
:2042D300024170752501024170752701024170752801024170E527600AE52114F98921876F
:2042F30006800BE52124FEFB8B218B0187068E82124073024496E52124FDFE8E218E018797
:204313000209870309870619198A148B158E168A828B838EF012475A85823285833374FF19
:20433300B52C09B52D0685322C85332DE5227037C3E5329538E5339539502CE538C3953272
:20435300F536E5399533F537AA36AE37153674FFB536021537EA4E60087582201240738055
:20437300E7853638853739AB2CAE2D8514828515838516F012478FFA8A306034C3E49B7400
:20439300808EF063F08095F050261BBBFF011E853082C006C003124073D003D006AA14ACB2
:2043B30015AD160ABA00010C8A148C158D1680BBE5227003024496C3E5329538E533953941
:2043D3004003024496E538C39532F536E5399533F537AA36AE37153674FFB536021537EA21
:2043F3004E700302449075822012407380E4E52124FDFE8E218E01870209870309870619A5
:20441300198A148B158E16AE16BE800040047B438014BE600040047B50800BBE40004004FC
:204433007B4980027B588B82C00312407375823A124073758230124073758278124073D0D5
:2044530003BB4902800BBB500280068515821240B08514821240B0802A752601752B0A8077
:2044730022752B08801D752B0A8018752B108013752901800E853582124073800685363896
:20449300853739E5296060E52124FCFE8E218E01873809873909873A09873B1919198538BF
:2044B30014853915853A16853B1775140175154C75168085143885153985163A74012538A0
:2044D300FAE43539FBAE3A8A148B158E16853882853983853AF012478FFEFB7003024120D2
:2044F3008B8212407380CCE52B7003024120E527602BE52114F9892187068E027B007D003C
:204513007E008A148B158D168E17E5267064AA14FBFDFE8A148B158D168E178055E5286029
:2045330021E52124FCFE8E218E0187020987030987050987061919198A148B158D168E17CD
:204553008030E52124FEFE8E218E01870309870619EEFA3395E0FDFE8B148A158D168E17EA
:20457300E526700EAA14AB15FDFE8A148B158D168E17E5266023E51730E71BC3E49514FB99
:20459300E49515FCE49516FDE49517FE8B148C158D168E178003752600752A0179447D00E4
:2045B3007E00751800852B82C006C005C0011240C7D001D005D006E52A7014E518C454F032
:2045D300FCE518C4540F4204E7FB4CF7198002A7180DBD00010EE52AB40100E433F52AE52B
:2045F3001445154516451770B989318D2E8E2FE53845397005753801F539E523702DE52290
:204613007029AA38AB39AC2E0C7E00C3EC9AEE9B5015758220C003C002124073D002D00387
:204633001ABAFF011B80DF8A388B39E526601175822D124073153874FFB538021539802E83
:20465300E52E452F6028E524601175822B124073153874FFB5380215398013E525600F7559
:204673008220124073153874FFB538021539E5227033AD38AE398D038E041DBDFF011EC370
:20469300E52E9BE52F9C503EE52360067B307C0080047B207C008B82C006C005124073D0BE
:2046B30005D00680D1C3E52E9538E52F9539500FE538C3952EF538E539952FF539800BE488
:2046D300F538F53980048D388E39A931AD2EAE2F8D028E041DBDFF011EEA4C6030E52AB428
:2046F3000100E433F52A700A09E7C4540FFC8C1880078704740F5CF518851882C006C00597
:20471300C001124096D001D005D00680C3E5227003024120AD38AE398D038E041DBDFF0179
:204733001EEB4C7003024120758220C006C005124073D005D00680E08F8212407302412090
:07475300851982851A8322FB
:0B4C01003C4E4F20464C4F41543E00FB
:18475A00AA82AB8312478F6003A380F8C3E5829AF582E5839BF58322AF
:1D477200E582853CF0A4C582C0F0853DF0A4D0F025F0C583853CF0A42583F583226D
:0D300600758144123CE1E582600302300355
:1C478F0020F71430F6148883A88220F507E6A88375830022E280F7E49322E02239
:2047AB00C2D5E58330E70DD2D5E4C39582F582E49583F583E53D30E70BE4C3953CF53CE4AA
:1647CB00953DF53D123FD630D50BE4C39582F582E49583F58322D2
:00000001FF
