:103062007F00C00774E6C0E0743EC0E0123D3E152A
:10307200811581D0077D007E00C3ED9402EE64804D
:103082009480400302312FC007C006C005123D25BF
:10309200AC82D005D006D007900000ECF08C03BBC8
:1030A200300040108C03EB24C64009EC24D0900081
:1030B20000F08052900000E0FCBC4100400EEC2485
:1030C200B9400990000074C92CF0803A900000E0E9
:1030D200FCBC6100400EEC2499400990000074A9E8
:1030E2002CF08022900000E0FCBC0A028003BC0DA0
:1030F20015C00774E9C0E0743EC0E0123D3E158180
:103102001581D00780278D047401C39C25E025E03A
:10311200FC900000E0FB8CF005F0EB800225E0D58E
:10312200F0FBFC42070DBD00010E02307BC00774AC
:10313200E9C0E0743EC0E0123D3E15811581D00722
:103142008F822274ECC0E0743EC0E0123D3E1581D5
:103152001581123062E582FF24F85011741FC0E01D
:10316200743FC0E0123D3E1581158180D6C00774C0
:1031720046C0E0743FC0E0123D3E15811581123019
:1031820062AE82C0067482C0E0743FC0E0123D3E6F
:1031920015811581123062AD82D006D007900001F0
:1031A200EFF0900002EEF08D8212342F74ADC0E089
:1031B200743FC0E0123D3E158115812274F9C0E0D2
:1031C200743FC0E0123D3E15811581123062E582E6
:1031D200FF24F85011741FC0E0743FC0E0123D3E5E
:1031E2001581158180D6C007742BC0E07440C0E001
:1031F200123D3E15811581123062AE82D0079000D9
:1032020004EEF08F82C0061234B3AF82D0067D0086
:103212007C00C007C005C006C0047465C0E07440ED
:10322200C0E0123D3EE58124FAF58174ADC0E07440
:103232003FC0E0123D3E158115812274F9C0E07451
:103242003FC0E0123D3E15811581123062E582FFDA
:1032520024F85011741FC0E0743FC0E0123D3E15C7
:1032620081158180D6C007747FC0E07440C0E0122F
:103272003D3E15811581123062AE82C00674AAC02D
:10328200E07440C0E0123D3E15811581123062ADFE
:1032920082D006D007C3EE9D401174D3C0E07440C3
:1032A200C0E0123D3E158115818090EDC39EFD90D8
:1032B2000006EEF0900007EDF08F82C006C0051206
:1032C20035C5AC82AF83D005D0067A007B008D0075
:1032D200790008B8000109C3EA98EB648089F063B9
:1032E200F08095F0400302338B750D10750E008A45
:1032F200828B83C007C006C005C004C003C002128F
:103302003EB0E5828583F0D002D003D004D005D050
:1033120006D00745F070308E00F9C007C006C00520
:10332200C004C003C002C000C001741DC0E07441EB
:10333200C0E0123D3EE58124FCF581D002D003D0ED
:1033420004D005D006D007EA2CF582EB3FF583E0E6
:10335200F87900C007C006C005C004C003C002C09F
:1033620000C0017426C0E07441C0E0123D3EE58118
:1033720024FCF581D002D003D004D005D006D007BA
:103382000E0ABA00010B0232D074E9C0E0743EC0EA
:10339200E0123D3E1581158174ADC0E0743FC0E07E
:1033A200123D3E1581158122742CC0E07441C0E0AB
:1033B200123D3E15811581123B5574ADC0E0743F3C
:0A33C200C0E0123D3E158115812286
:103EE6003078000A0D00506C6561736520656E744C
:103EF600657220626C6F636B202320696E20686593
:103F06007820666F726D617420746F2073746F729F
:103F16006520646174610A0D00506C6561736520EB
:103F2600656E74657220626C6F636B202320696E08
:103F36002072616E6765206F6620302D370A0D008E
:103F4600506C6561736520656E746572206164648A
:103F56007265737320696E2068657820666F726D6E
:103F6600617420746F2073746F72652074686520A5
:103F76006461746120627974650A0D00506C656134
:103F8600736520656E746572206461746120696E64
:103F96002068657820666F726D617420746F207377
:103FA600746F72650A0D003D3D3D3D3D3D3D3D3D15
:103FB6003D3D3D3D3D3D3D3D3D3D3D3D3D3D3D3D2B
:103FC6003D3D3D3D3D3D3D3D3D3D3D3D3D3D3D3D1B
:103FD6003D3D3D3D3D3D3D3D3D3D3D3D3D3D3D3D0B
:103FE6003D3D3D3D3D3D3D3D3D3D3D3D3D3D3D3DFB
:103FF6000A0D00506C6561736520656E74657220EC
:10400600626C6F636B202320696E2068657820667A
:104016006F726D617420746F2072656164206461D3
:1040260074610A0D00506C6561736520656E746578
:1040360072206164647265737320696E20686578A6
:1040460020666F726D617420746F206765742074CA
:104056006865206461746120627974650A0D005296
:1040660065616420627974652D2D3E20307825784F
:104076003A20307825780A0D00506C65617365200A
:10408600656E746572207374617274206164647203
:1040960065737320696E2068657820666F726D613E
:1040A600740A0D00506C6561736520656E746572E7
:1040B60020656E64206164647265737320696E2086
:1040C60068657820666F726D61740A0D00496E76B8
:1040D600616C696420616464726573732072616ED9
:1040E60067652C20656E6420616464726573732055
:1040F60073686F756C6420626520677265617465AC
:1041060072207468616E20737461727420616464D5
:10411600726573730A0D000A0D30782578203A000F
:104126002030782578005265736574206D6F64655C
:034136000A0D006F
:1033CC00AE82AF838E048F051EBEFF011FEC4D60D5
:1033DC00030080F022AF827D007E00C3ED9408EEE6
:1033EC0064809480503CEF23540124FF9293D2923A
:1033FC00900002C007C006C0051233CCD005D00621
:10340C00D007C2928F04EC2CFF900000C007C006BE
:10341C00C0051233CCD005D006D0070DBD00BC0EB4
:10342C0080B922E582900003F0D292D293900002F0
:10343C001233CCC2939000021233CCC29290000192
:10344C00E025E0FF74A04FF5821233E1D293D292C3
:10345C009000021233CCC2929000001233CC900038
:10346C0002E0F5821233E1D293D292900002123331
:10347C00CCC2929000001233CC900003E0F5821283
:10348C0033E1D293D2929000021233CCC2929000CC
:10349C00011233CCC2939000011233CCD292900023
:1034AC00001233CCD29322E582900005F0D292D256
:1034BC00939000021233CCC2939000021233CCC210
:1034CC0092900005E025E0FF74A04FF582C0071232
:1034DC0033E1D293D2929000031233CCC29290007B
:1034EC00001233CC900004E0F5821233E1D293D277
:1034FC00929000021233CCC292D2939000021233FB
:10350C00CCD2929000001233CCC2939000021233B2
:10351C00CCD007C29274A14FF5821233E1D29390B2
:10352C0000021233CCD2929000021233CCC2929091
:10353C0000021233CC7F007D007E00C3ED9408EEB8
:10354C0064809480503A8F04EC2CFCD29290000250
:10355C00C006C005C0041233CCD004D005D006A2DE
:10356C0093E4334CFFC292900001C007C006C00523
:10357C001233CCD005D006D0070DBD00BE0E80BBDB
:10358C00D293900002C0071233CCD2929000021258
:10359C0033CCC292C2939000021233CCD2929000E0
:1035AC00021233CCD2939000021233CCC292900010
:1035BC00021233CCD0078F8222E582900008F09063
:1035CC000009E4F090000AF090000BF090000CF071
:1035DC0090000DF090000EF090000FF0900010F0A5
:1035EC00900011F0900012F0900013F0900014F085
:1035FC00900015F0900016F0900017F0900018F065
:10360C00900019F090001AF090001BF090001CF044
:10361C0090001DF090001EF090001FF0900020F024
:10362C00900021F0900022F0900023F0900024F004
:10363C00900025F0900026F0900027F0900028F0E4
:10364C00900029F090002AF090002BF090002CF0C4
:10365C0090002DF090002EF090002FF0900030F0A4
:10366C00900031F0900032F0900033F0900034F084
:10367C00900035F0900036F0900037F0900038F064
:10368C00900039F090003AF090003BF090003CF044
:10369C0090003DF090003EF090003FF0900040F024
:1036AC00900041F0900042F0900043F0900044F004
:1036BC00900045F0900046F0900047F0900048F0E4
:1036CC00900049F090004AF090004BF090004CF0C4
:1036DC0090004DF090004EF090004FF0900050F0A4
:1036EC00900051F0900052F0900053F0900054F084
:1036FC00900055F0900056F0900057F0900058F064
:10370C00900059F090005AF090005BF090005CF043
:10371C0090005DF090005EF090005FF0900060F023
:10372C00900061F0900062F0900063F0900064F003
:10373C00900065F0900066F0900067F0900068F0E3
:10374C00900069F090006AF090006BF090006CF0C3
:10375C0090006DF090006EF090006FF0900070F0A3
:10376C00900071F0900072F0900073F0900074F083
:10377C00900075F0900076F0900077F0900078F063
:10378C00900079F090007AF090007BF090007CF043
:10379C0090007DF090007EF090007FF0900080F023
:1037AC00900081F0900082F0900083F0900084F003
:1037BC00900085F0900086F0900087F0900088F0E3
:1037CC00900089F090008AF090008BF090008CF0C3
:1037DC0090008DF090008EF090008FF0900090F0A3
:1037EC00900091F0900092F0900093F0900094F083
:1037FC00900095F0900096F0900097F0900098F063
:10380C00900099F090009AF090009BF090009CF042
:10381C0090009DF090009EF090009FF09000A0F022
:10382C009000A1F09000A2F09000A3F09000A4F002
:10383C009000A5F09000A6F09000A7F09000A8F0E2
:10384C009000A9F09000AAF09000ABF09000ACF0C2
:10385C009000ADF09000AEF09000AFF09000B0F0A2
:10386C009000B1F09000B2F09000B3F09000B4F082
:10387C009000B5F09000B6F09000B7F09000B8F062
:10388C009000B9F09000BAF09000BBF09000BCF042
:10389C009000BDF09000BEF09000BFF09000C0F022
:1038AC009000C1F09000C2F09000C3F09000C4F002
:1038BC009000C5F09000C6F09000C7F09000C8F0E2
:1038CC009000C9F09000CAF09000CBF09000CCF0C2
:1038DC009000CDF09000CEF09000CFF09000D0F0A2
:1038EC009000D1F09000D2F09000D3F09000D4F082
:1038FC009000D5F09000D6F09000D7F09000D8F062
:10390C009000D9F09000DAF09000DBF09000DCF041
:10391C009000DDF09000DEF09000DFF09000E0F021
:10392C009000E1F09000E2F09000E3F09000E4F001
:10393C009000E5F09000E6F09000E7F09000E8F0E1
:10394C009000E9F09000EAF09000EBF09000ECF0C1
:10395C009000EDF09000EEF09000EFF09000F0F0A1
:10396C009000F1F09000F2F09000F3F09000F4F081
:10397C009000F5F09000F6F09000F7F09000F8F061
:10398C009000F9F09000FAF09000FBF09000FCF041
:10399C009000FDF09000FEF09000FFF0900100F020
:1039AC00900101F0900102F0900103F0900104F0FD
:1039BC00900105F0900106F0900107F0900108F0DD
:1039CC00D292D2939000021233CCC2939000021286
:1039DC0033CCC292900008E025E0FF74A04FF58232
:1039EC00C0071233E1D293D2929000031233CCC2AF
:1039FC00929000001233CC900006E0F5821233E175
:103A0C00D293D2929000021233CCC292D2939000F5
:103A1C00021233CCD2929000001233CCC29390009D
:103A2C00021233CCD007C29274A14FF5821233E14B
:103A3C00D2939000021233CCD2929000021233CC6B
:103A4C00C2929000021233CC900007E0FFE4F5081C
:103A5C00F5098F037C0074012BF9E43CFAC3E508EB
:103A6C0099E50964808AF063F08095F04003023B8D
:103A7C001FE4F50AF50BC3E50A9408E50B64809482
:103A8C00805058D293E5082409F8E5093400FA88E7
:103A9C00828A83E025E088828A83F0D292900001AA
:103AAC00C007C004C003C002C0001233CCD000D089
:103ABC000288828A83E0F9A293E433420188828AE5
:103ACC0083E9F0C2929000011233CCD003D004D021
:103ADC0007050AE4B50A9F050B809BC3E5089BE527
:103AEC000964808CF063F08095F0501CC2939000B8
:103AFC0000C0071233CCD2929000021233CCC29287
:103B0C009000011233CCD0070508E4B50802050972
:103B1C00023A5ED2939000021233CCD29290000201
:103B2C001233CCC292C2939000021233CCD2929038
:103B3C0000021233CCD2939000021233CCC292907A
:103B4C0000021233CC90000922D292D29390000240
:103B5C001233CCC2939000001233CCC2929000006E
:103B6C001233CC7E007F00C3EE9409EF6480948006
:103B7C005021D293D292900002C007C0061233CCCF
:103B8C00C2929000011233CCD006D0070EBE00D7E3
:103B9C000F80D4D2929000001233CCC293900000CC
:103BAC001233CCC292C2939000011233CCD29290B9
:103BBC0000001233CCD2939000001233CCC292226C
:0330000002300695
:03305F0002300339
:03300300023BD3BA
:103BCC00438E0C90000022123C56123D25AF82C34E
:103BDC00EF648094B0400B74B98FF063F08095F073
:103BEC005013C3EF648094C1402074DA8FF063F0FB
:103BFC008095F04015C007743BC0E07441C0E012E2
:103C0C003D3E15811581D0078013C0077462C0E05A
:103C1C007441C0E0123D3E15811581D007BF65028D
:103C2C00801CBF68028012BF72028008BF7712121C
:103C3C003145800D1231BE800812323D80031233A3
:0A3C4C00AA9000031233CC023BD60D
:104139008813506C6561736520656E7465722063C0
:104149006F6D6D616E647320696E20736D616C6C47
:0C4159002063617365730A0D000A0D00FD
:103C56007465C0E07441C0E0123D3E158115817463
:103C6600B1C0E07441C0E0123D3E1581158174D9A2
:103C7600C0E07441C0E0123D3E1581158174FAC062
:103C8600E07441C0E0123D3E15811581741AC0E012
:103C96007442C0E0123D3E15811581743BC0E0744C
:103CA60042C0E0123D3E158115817465C0E0744145
:0A3CB600C0E0123D3E158115812289
:104165002A2A2A2A2A2A2A2A2A2A2A2A2A2A2A2AAA
:104175002A2A2A2A2A2A2A2A2A2A2A2A2A2A2A2A9A
:104185002A2A2A2A2A2A2A2A2A2A2A2A2A2A2A2A8A
:104195002A2A2A2A2A2A2A2A2A2A2A2A2A2A2A2A7A
:1041A5002A2A2A2A2A2A2A2A2A0A0D0043686F6FF0
:1041B500736520746865206F7074696F6E7320660F
:1041C500726F6D2062656C6F77206D656E75203A34
:1041D500200A0D005B775D2E20546F2057524954FD
:1041E50045206279746520696E746F20454550528B
:1041F5004F4D0A0D005B725D2E20546F20524541D4
:104205004420627974652066726F6D204545505271
:104215004F4D0A0D005B685D2E20546F2073656558
:10422500204845582064756D70206F6620454550BF
:10423500524F4D0A0D005B655D2E20546F20646F53
:1042450020736F667477617265207265736574207B
:0C4255006F6620454550524F4D0A0D0089
:103CC000AE82AF833099FD8E99C2998E828F832206
:103CD00010980280FBAE997F008E828F8322AD8286
:103CE000AE83AFF07B007C008D828E838FF0123E1E
:103CF00094FA602B0DBD00010E8A017A0089828A38
:103D000083C007C006C005C004C003123CC0D00376
:103D1000D004D005D006D0070BBB00CC0C80C98BDB
:103D2000828C83A322123CD0AE82EEFD3395E0FF5D
:0E3D30008D828F83C006123CC0D0068E822288
:06303500E478FFF6D8FD6F
:103013007900E94400601B7A00904261789175A0C1
:1030230014E493F2A308B8000205A0D9F4DAF27508
:02303300A0FFFC
:103D3E00C00C85810CE50C24FDF88683188682184C
:103D4E00E493A324DB600C24256005123E2C80F046
:103D5E00023E44D2D5E493A3C083C082B4731486CA
:103D6E00F018868318868218123E946054A3123E71
:103D7E002C80F5B4630818E618123E2C8043B46408
:103D8E0017E630E74618E6F42401F608E6F43400A8
:103D9E00F6742D123E2C8033B4782D8683188682CD
:103DAE0018E4123E1DE583123E1CE583123E1DE50E
:103DBE0082123E1CE582123E1D30D5057430123E35
:103DCE002CD082D083023D4EB475F6E6FA18E6F991
:103DDE00187C107D27123E07FF7CE87D03123E07FC
:103DEE00C4F5837C647D00123E074283E975F00AB8
:103DFE0084C445F0F582EF80A97B000BC3E99CF9E2
:103E0E00EA9DFA50F61BE92CF9EA3DFAEB22C4546E
:103E1E000F700320D51FC2D52490D43440D4C08354
:103E2E00C082C0F0F582E8C0E0123CC0D0E0F8D00D
:103E3E00F0D082D08322D00C22E50D450E60467A5A
:103E4E0001E50D25E0F50DE50E334012F50EE58288
:103E5E00950DE583950E40030A80E6C3E50E13F536
:103E6E000EE50D13F50DC3E582950DF5F0E5839581
:103E7E000E4005F58385F082C3E50E13F50EE50DB4
:063E8E0013F50DDAE1223C
:10303B007800E84400600A790075A000E4F309D831
:10304B00FC7891E84414600C7915900000E4F0A32F
:04305B00D8FCD9FACA
:0D30060075810E123BCCE5826003023003A1
:103E940020F71430F6148883A88220F507E6A88357
:103EA40075830022E280F7E49322E022C2D5E58301
:103EB40030E70DD2D5E4C39582F582E49583F5838A
:103EC400E50E30E70BE4C3950DF50DE4950EF50E04
:103ED400123E4730D50BE4C39582F582E49583F511
:023EE400832237
:00000001FF
