:042000000220313257
:01200B0032A2
:01201300329A
:01201B003292
:01202300328A
:03202B0002239EEF
:10208A007508007509FCE4F50AF50BF50CF50D75F4
:09209A001301F514F51502202EC6
:03202E0002251375
:1020A300438E0C90000022AC82AD83AEF0FF8C0017
:1020B3008D018E028F031CBCFF091DBDFF051EBED3
:1020C300FF011FE8494A4B60030080E222E58224B6
:1020D300FF9296E52224FF9297850882850983E57E
:1020E30023F022C296D297850882850983E020E7F0
:1020F300F622AF82C296C297850882850983430779
:1021030080EFF00220E6AE827F00EE30E0237522FE
:10211300037523008E828F83122914AC82AD83EC66
:102123004DB401009200E433C454F0AC162CFD808E
:102133001AAC1674402CFC5306037F00EE4FB40117
:10214300009200E433C454F0FF2CFDED14F5820239
:1021530020F5AF82D296C297850882850983EFF076
:102163000220E6AD82AE83AFF08D828E838FF012B4
:1021730028F8700122C296D2978D828E838FF01237
:1021830028F8F582C007C006C005122155D005D036
:1021930006D007850882850983E0FC53047FBC10C1
:1021A30002800FBC20028032BC50028019BC6050F8
:1021B300803C758240C007C006C0051220F5D005DB
:1021C300D006D007803A758210C007C006C005123A
:1021D30020F5D005D006D0078026758250C007C0F1
:1021E30006C0051220F5D005D006D00780127582EF
:1021F30000C007C006C0051220F5D005D006D007E1
:102203000DBD00010E02216C9036B0E4F5F01220F2
:10221300AA7522007523307582001220D0900FA07A
:10222300E4F5F01220AA752200752330758200129E
:1022330020D0900064E4F5F01220AA7522007523E3
:10224300307582001220D01220E6752200752338E3
:102253007582001220D01220E675220075230875BE
:1022630082001220D01220E675220075230C75829D
:10227300001220D01220E675220075230675820015
:102283001220D01220E67522007523017582000208
:1022930020D0C296C2978508828509837401F00213
:1022A30020E6744AC0E07429C0E01227A215811504
:1022B300817582011220F57582451221559086A001
:1022C30075F001E41220AA75160175820112210925
:1022D30090296575F0801221669086A075F001E45F
:1022E3001220AA85138212232675820F1220F585E8
:1022F30013821221559086A075F001E41220AA12D0
:10230300229574A8C0E07429C0E01227A215811594
:102313008122AF82C296C297850882850983EFF036
:102323000220E6AF8275170475180E751904751A25
:1023330004751B04751C04751D04751E0A7D007E3F
:1023430000C3ED9408EE6480948050348F04ECC491
:102353000354F8FC4304408D03EB4CF582C007C0E3
:1023630006C005122315D005ED2417F98782C00591
:10237300122155D005D006D0070DBD00C40E80C173
:102383002275C90175CAFC75CB4B85CACC85CBCDEB
:10239300D2CA22122384D2ADD2AF22C021C0E0C060
:1023A300F0C082C083C007C006C005C004C003C01C
:1023B30002C001C000C0D075D000D20110AF02C26C
:1023C30001AE0AAF0B74012EF50AE43FF50BA2012F
:1023D30092AF122436C2CFD0D0D000D001D002D0D9
:1023E30003D004D005D006D007D083D082D0F0D05C
:1023F300E0D02132750E30750F3075103075113005
:102403007512307582591220F5850E821221558579
:102413000F8212215575823A12215585108212219D
:102423005585118212215575822E122155851282EE
:10243300022155E5144515700122E50A30E0012219
:10244300C3E50C950AE50D950B400122850A0C8521
:102453000B0DE51204F512E51224C6502075123057
:1024630075825F1220F5851282122155E51104F55C
:102473001175825D1220F5851182122155E5112413
:10248300C6502075113075825D1220F585118212B8
:102493002155E51004F51075825C1220F585108234
:1024A300122155E51024CA502075103075825C1234
:1024B30020F5851082122155E50F04F50F75825A18
:1024C3001220F5850F82122155E50F24C650207581
:1024D3000F3075825A1220F5850F82122155E50EB1
:1024E30004F50E7582591220F5850E82122155E5E9
:1024F3000E24CA500F750E307582591220F5850EC1
:102503008212215575825F1220F5851282022155B0
:1025130012220B1222A512239674C1C0E07429C0A3
:10252300E01227A215811581740DC0E0742AC0E062
:102533001227A215811581741BC0E0742AC0E01212
:1025430027A2158115817430C0E0742AC0E01227D8
:10255300A2158115817442C0E0742AC0E01227A23B
:102563001581158174C1C0E07429C0E01227A2153A
:102573008115811223F775160175820112210990C5
:102583002A5575F080122166751601758202122193
:1025930009902A6375F0801221667516017582030E
:1025A300122109902A6B75F0801221667516017548
:1025B3008204122109902A7375F080122166122772
:1025C3007DAF82C3EF648094B0400B74B98FF06326
:1025D300F08095F05013C3EF648094C1402074DA07
:1025E3008FF063F08095F04015C0077479C0E074F4
:1025F3002AC0E01227A215811581D0078013C007D6
:1026030074A0C0E0742AC0E01227A215811581D0FE
:1026130007BF6102800DBF6202804DBF63030226C4
:10262300AF809B74A3C0E0742AC0E01227A2158177
:10263300158175140175150075160875820212212E
:102643000975823C122155751608758203122109FA
:10265300758220122155751606758204122109759B
:1026630082201221550225C174B6C0E0742AC0E04D
:102673001227A215811581E4F514F5157516087551
:10268300820212210975822012215575160875825E
:102693000312210975823C122155751606758204B1
:1026A3001221097582201221550225C174C7C0E089
:1026B300742AC0E01227A2158115811223F775161B
:1026C3000875820212210975822012215575160898
:1026D300758203122109758220122155751606751C
:1026E300820412210975823C122155E514451560B7
:1026F3001275160875820212210975823C12215542
:102703000225C175160875820312210975823C12D0
:0527130021550225C163
:10294A00746573745F66756E6374696F6E616C69C2
:10295A0074792073746172740A0D004142434445CC
:10296A00464748494A4B4C4D4E4F50515253545585
:10297A00565758595A3132333435363738396162F5
:10298A00636465666768696A6B6C6D6E6F70717295
:10299A00737475767778797A4A495448550074651C
:1029AA0073745F66756E6374696F6E616C6974794E
:1029BA0020656E640A0D002A2A2A2A2A2A2A2A2A25
:1029CA002A2A2A2A2A2A2A2A2A2A2A2A2A2A2A2A5D
:1029DA002A2A2A2A2A2A2A2A2A2A2A2A2A2A2A2A4D
:1029EA002A2A2A2A2A2A2A2A2A2A2A2A2A2A2A2A3D
:1029FA002A2A2A2A2A2A2A2A2A2A2A2A2A2A2A2A2D
:102A0A000A0D00434C4F434B204D454E553A0A0D93
:102A1A00005B615D2E20436C6F636B20726573747B
:102A2A006172740A0D005B625D2E20436C6F636BEA
:102A3A002073746F700A0D005B635D2E20436C6F08
:102A4A00636B2072657365740A0D00436C6F636B68
:102A5A00207374617475733A0052756E6E696E678D
:102A6A000053746F7070656400526573657400502A
:102A7A006C6561736520656E74657220636F6D6D38
:102A8A00616E647320696E20736D616C6C20636182
:102A9A007365730A0D000A0D0052657374617274CE
:102AAA00696E6720636C6F636B0A0D0053746F70F5
:102ABA0070696E6720636C6F636B0A0D00526573F1
:102ACA00657474696E6720636C6F636B0A0D00002E
:10271800AE82AF833099FD8E99C2998E828F8322C3
:1027280010980280FBAE997F008E828F8322AD8243
:10273800AE83AFF07B007C008D828E838FF01228F1
:10274800F8FA602B0DBD00010E8A017A0089828A91
:1027580083C007C006C005C004C003122718D003F1
:10276800D004D005D006D0070BBB00CC0C80C98B99
:10277800828C83A322122728E582FEFD3395E0FF91
:102788008D828F83C00612271890000D122718908B
:0A279800000A122718D0068E8222D4
:06206000E478FFF6D8FD54
:10203E007901E94400601B7A01902AD9780075A0D5
:10204E00FCE493F2A308B8000205A0D9F4DAF27505
:02205E00A0FFE1
:1027A200C01F85811FE51F24FDF8868318868218C5
:1027B200E493A324DB600C2425600512289080F0AA
:1027C2000228A8D2D5E493A3C083C082B47314862E
:1027D200F0188683188682181228F86054A31228EB
:1027E2009080F5B4630818E6181228908043B46408
:1027F20017E630E74618E6F42401F608E6F434005A
:10280200F6742D1228908033B4782D868318868230
:1028120018E4122881E583122880E583122881E5D5
:1028220082122880E58212288130D5057430122860
:1028320090D082D0830227B2B475F6E6FA18E6F990
:10284200187C107D2712286BFF7CE87D0312286B11
:10285200C4F5837C647D0012286B4283E975F00A1B
:1028620084C445F0F582EF80A97B000BC3E99CF993
:10287200EA9DFA50F61BE92CF9EA3DFAEB22C45420
:102882000F700320D51FC2D52490D43440D4C08306
:10289200C082C0F0F582E8C0E0122718D0E0F8D07C
:1028A200F0D082D08322D01F22E522452360467ACF
:1028B20001E52225E0F522E523334012F523E582E6
:1028C2009522E583952340030A80E6C3E52313F5A9
:1028D20023E52213F522C3E5829522F5F0E58395DF
:1028E200234005F58385F082C3E52313F523E52212
:0628F20013F522DAE122D9
:102066007800E84400600A790075A0FCE4F309D81A
:10207600FC7800E84400600C790090FC00E4F0A3D2
:04208600D8FCD9FAAF
:0D2031007581231220A3E582600302202E9A
:1028F80020F71430F6148883A88220F507E6A88309
:1029080075830022E280F7E49322E022C2D5E583B2
:1029180030E70DD2D5E4C39582F582E49583F5833B
:10292800E52330E70BE4C39522F522E49523F5234C
:102938001228AB30D50BE4C39582F582E49583F574
:022948008322E8
:00000001FF
