:042000000220313257
:01200B0032A2
:01201300329A
:01201B003292
:01202300328A
:03202B0002237F0E
:16208A007508007509FCE4F50AF50BF50CF50DF513F51402202E02
:03202E000224F495
:2020A000438E0C90000022AC82AD83AEF0FF8C008D018E028F031CBCFF091DBDFF051EBEC0
:2020C000FF011FE8494A4B60030080E222E58224FF9296E52224FF9297850882850983E52A
:2020E00023F022C296D297850882850983E020E7F622AF82C296C29785088285098343077F
:2021000080EFF00220E3AE827F00EE30E0237522037523008E828F831227E0AC82AD83ECD4
:202120004DB401009200E433C454F0AC152CFD801AAC1574402CFC5306037F00EE4FB401FE
:20214000009200E433C454F0FF2CFDED14F5820220F2AF82D296C297850882850983EFF029
:202160000220E3AD82AE83AFF08D828E838FF01227C4700122C296D2978D828E838FF012BA
:2021800027C4F582C007C006C005122152D005D006D007850882850983E0FC53047FBC10E6
:2021A00002800FBC20028032BC50028019BC6050803C758240C007C006C0051220F2D005AD
:2021C000D006D007803A758210C007C006C0051220F2D005D006D0078026758250C007C025
:2021E00006C0051220F2D005D006D0078012758200C007C006C0051220F2D005D006D007ED
:202200000DBD00010E0221699036B0E4F5F01220A77522007523307582001220CD900FA0AD
:20222000E4F5F01220A77522007523307582001220CD900064E4F5F01220A77522007523E2
:20224000307582001220CD1220E37522007523387582001220CD1220E37522007523087525
:2022600082001220CD1220E375220075230C7582001220CD1220E375220075230675820056
:202280001220CD1220E37522007523017582000220CDC296C2978508828509837401F002DC
:2022A00020E37416C0E07428C0E012266E158115817582011220F27582451221529086A050
:2022C00075F001E41220A775150175820112210690283175F0801221639086A075F001E4BB
:2022E0001220A71222927474C0E07428C0E012266E1581158122AF82C296C2978508828511
:202300000983EFF00220E3AF8275160475170E751804751904751A04751B04751C04751D82
:202320000A7D007E00C3ED9408EE6480948050348F04ECC40354F8FC4304408D03EB4CF511
:2023400082C007C006C0051222F6D005ED2416F98782C005122152D005D006D0070DBD00EB
:20236000C40E80C12275C90175CA0075CB0085CACC85CBCDD2CA22122365D2ADD2AF22C0F8
:2023800021C0E0C0F0C082C083C007C006C005C004C003C002C001C000C0D075D000D20183
:2023A00010AF02C201AE0AAF0B74012EF50AE43FF50BA20192AF122417C2CFD0D0D000D060
:2023C00001D002D003D004D005D006D007D083D082D0F0D0E0D02132750E30750F307510DD
:2023E000307511307512307582591220F2850E82122152850F8212215275823A122152855C
:20240000108212215285118212215275822E122152851282022152E5134514700122E50AFD
:2024200030E00122C3E50C950AE50D950B400122850A0C850B0DE51204F512E51224C650B6
:202440002075123075825F1220F2851282122152E51104F51175825D1220F28511821221CA
:2024600052E51124C6502075113075825D1220F2851182122152E51004F51075825C12206C
:20248000F2851082122152E51024CA502075103075825C1220F2851082122152E50F04F5A6
:2024A0000F75825A1220F2850F82122152E50F24C65020750F3075825A1220F2850F82125E
:2024C0002152E50E04F50E7582591220F2850E82122152E50E24CA500F750E30758259122C
:2024E00020F2850E8212215275825F1220F28512820221521222081222A2758201122307E2
:2025000075820F1220F2758201122152122377748DC0E07428C0E012266E1581158174D96C
:20252000C0E07428C0E012266E1581158174E7C0E07428C0E012266E1581158174FCC0E0D4
:202540007428C0E012266E15811581740EC0E07429C0E012266E15811581748DC0E07428FF
:20256000C0E012266E158115811223D8122649AF82C3EF648094B0400B74B98FF063F08086
:2025800095F05013C3EF648094C1402074DA8FF063F08095F04015C0077421C0E07429C035
:2025A000E012266E15811581D0078013C0077448C0E07429C0E012266E15811581D007BF37
:2025C0006102800ABF6202800DBF63A080107513017514008096E4F513F51402256C122327
:0425E000D802256C8C
:20281600746573745F66756E6374696F6E616C6974792073746172740A0D00414243444546
:20283600464748494A4B4C4D4E4F505152535455565758595A313233343536373839616252
:20285600636465666768696A6B6C6D6E6F707172737475767778797A4A49544855007465A9
:2028760073745F66756E6374696F6E616C69747920656E640A0D002A2A2A2A2A2A2A2A2A8B
:202896002A2A2A2A2A2A2A2A2A2A2A2A2A2A2A2A2A2A2A2A2A2A2A2A2A2A2A2A2A2A2A2AE2
:2028B6002A2A2A2A2A2A2A2A2A2A2A2A2A2A2A2A2A2A2A2A2A2A2A2A2A2A2A2A2A2A2A2AC2
:2028D6000A0D00434C4F434B204D454E553A0A0D005B615D2E20436C6F636B207265737488
:2028F6006172740A0D005B625D2E20436C6F636B2073746F700A0D005B635D2E20436C6F8C
:20291600636B2072657365740A0D00506C6561736520656E74657220636F6D6D616E64736F
:1629360020696E20736D616C6C2063617365730A0D000A0D0000FE
:2025E400AE82AF833099FD8E99C2998E828F832210980280FBAE997F008E828F8322AD828B
:20260400AE83AFF07B007C008D828E838FF01227C4FA602B0DBD00010E8A017A0089828A5B
:2026240083C007C006C005C004C0031225E4D003D004D005D006D0070BBB00CC0C80C98B84
:20264400828C83A3221225F4E582FEFD3395E0FF8D828F83C0061225E490000D1225E490A2
:0A266400000A1225E4D0068E82223F
:06206000E478FFF6D8FD54
:20203E007901E94400601B7A0190294B780075A0FCE493F2A308B8000205A0D9F4DAF275D7
:02205E00A0FFE1
:20266E00C01E85811EE51E24FDF8868318868218E493A324DB600C2425600512275C80F0B5
:20268E00022774D2D5E493A3C083C082B4731486F0188683188682181227C46054A31227B2
:2026AE005C80F5B4630818E61812275C8043B46417E630E74618E6F42401F608E6F4340019
:2026CE00F6742D12275C8033B4782D868318868218E412274DE58312274CE58312274DE549
:2026EE008212274CE58212274D30D505743012275CD082D08302267EB475F6E6FA18E6F954
:20270E00187C107D27122737FF7CE87D03122737C4F5837C647D001227374283E975F00A7A
:20272E0084C445F0F582EF80A97B000BC3E99CF9EA9DFA50F61BE92CF9EA3DFAEB22C45482
:20274E000F700320D51FC2D52490D43440D4C083C082C0F0F582E8C0E01225E4D0E0F8D0A7
:09276E00F0D082D08322D01E229B
:20277700E522452360467A01E52225E0F522E523334012F523E5829522E583952340030A5F
:2027970080E6C3E52313F523E52213F522C3E5829522F5F0E58395234005F58385F082C338
:0D27B700E52313F523E52213F522DAE122D4
:202066007800E84400600A790075A0FCE4F309D8FC7800E84400600C790090FC00E4F0A382
:04208600D8FCD9FAAF
:0D2031007581231220A0E582600302202E9D
:1C27C40020F71430F6148883A88220F507E6A88375830022E280F7E49322E02224
:2027E000C2D5E58330E70DD2D5E4C39582F582E49583F583E52330E70BE4C39522F522E4E3
:162800009523F52312277730D50BE4C39582F582E49583F5832267
:00000001FF
