:05208A00E4F508F50972
:2020A800AC82AD83AEF0FF8C008D018E028F031CBCFF091DBDFF051EBEFF011FE8494A4B62
:2020C80060030080E22275C90175CAFC75CB4B85CACC85CBCDD2CA221220CED2ADD2AF22F4
:16208F007522007523FCE4F529F52A752B01F52CF52DF52EF52FC4
:2020E800E58224FF9296E50B24FF9297852282852383E50CF022C296D2978522828523837E
:20210800E020E7F622AF82C296C297852282852383430780EFF00220FEAE827F00EE30E00C
:2021280023750B03750C008E828F831228EFAC82AD83EC4DB401009200E433C454F0AC304C
:202148002CFD801AAC3074402CFC5306037F00EE4FB401009200E433C454F0FF2CFDED1455
:20216800F58202210DAF82D296C297852282852383EFF00220FEAD82AE83AFF08D828E834C
:202188008FF01228D3700122C296D2978D828E838FF01228D3F582C007C006C00512216D42
:2021A800D005D006D007852282852383E0FC53047FBC1002800FBC20028032BC50028019FB
:2021C800BC6050803C758240C007C006C00512210DD005D006D007803A758210C007C00636
:2021E800C00512210DD005D006D0078026758250C007C006C00512210DD005D006D00780CF
:2022080012758200C007C006C00512210DD005D006D0070DBD00010E0221849036B0E4F5CA
:20222800F01220A8750B00750C307582001220E8900FA0E4F5F01220A8750B00750C307502
:2022480082001220E8900064E4F5F01220A8750B00750C307582001220E81220FE750B0051
:20226800750C387582001220E81220FE750B00750C087582001220E81220FE750B00750C11
:202288000C7582001220E81220FE750B00750C067582001220E81220FE750B00750C01752A
:2022A80082000220E8C296C2978522828523837401F00220FE7425C0E07429C0E012277DD4
:2022C8001581158175820112210D75824512216D9086A075F001E41220A87530017582013E
:2022E80012212190294075F08012217E9086A075F001E41220A8852B8212233E75820F125C
:20230800210D852B8212216D9086A075F001E41220A81222AD7483C0E07429C0E012277D70
:202328001581158122AF82C296C297852282852383EFF00220FEAF8275310475320E7533DA
:202348000475340475350475360475370475380A7D007E00C3ED9408EE6480948050348FC0
:2023680004ECC40354F8FC4304408D03EB4CF582C007C006C00512232DD005ED2431F98746
:2023880082C00512216DD005D006D0070DBD00C40E80C122752430752530752630752730A3
:2023A80075283075825912210D85248212216D85258212216D75823A12216D8526821221F0
:2023C8006D85278212216D75822E12216D85288202216DE529452A700122E50830E0012206
:2023E800AC08AD097E007F00C3E52C9CE52D9DE52E9EE52F9F40012285082C85092D752E71
:2024080000752F000528E52824C6501D75283075825F12210D85288212216D052775825DCD
:2024280012210D85278212216DE52724C6501D75273075825D12210D85278212216D0526CA
:2024480075825C12210D85268212216DE52624CA501D75263075825C12210D8526821221F0
:202468006D052575825A12210D85258212216DE52524C6501D75253075825A12210D8525FA
:202488008212216D052475825912210D85248212216DE52424CA500F7524307582591221EC
:2024A8000D85248212216D75825F12210D85288202216D12239C7530017582011221219094
:2024C800299C75F08012217E7530017582021221219029AA75F08012217E7530017582030D
:2024E8001221219029B275F08012217E7530017582041221219029BA75F08002217EAF8260
:20250800753008758202C007122121D0078F8212216D7530087582031221218539821221FC
:102528006D753006758204122121853A8202216D6B
:20292500746573745F66756E6374696F6E616C6974792073746172740A0D00414243444536
:20294500464748494A4B4C4D4E4F505152535455565758595A313233343536373839616242
:20296500636465666768696A6B6C6D6E6F707172737475767778797A4A4954485500746599
:2029850073745F66756E6374696F6E616C69747920656E640A0D00436C6F636B20737461A1
:1B29A5007475733A0052756E6E696E670053746F7070656400526573657400BE
:012AB2000023
:042000000220313257
:01200B0032A2
:01201300329A
:01201B003292
:01202300328A
:03202B0002253F4C
:0320A50002202EE8
:03202E00022598F0
:20253800438E0C90000022C021C0E0C0F0C082C083C007C006C005C004C003C002C001C022
:2025580000C0D075D000D20110AF02C201AE08AF0974012EF508E43FF509A20192AF1223EF
:20257800DBC2CFD0D0D000D001D002D003D004D005D006D007D083D082D0F0D0E0D0213263
:202598001222231222BD1220E01226981224BB122758AF82C3EF648094B0400B74B98FF075
:2025B80063F08095F05013C3EF648094C1402074DA8FF063F08095F04015C00774C0C0E0E8
:2025D8007429C0E012277D15811581D0078013C00774E5C0E07429C0E012277D158115817B
:2025F800D007BF6102800ABF62028029BF63A0804774E8C0E07429C0E012277D15811581D0
:20261800752901752A00753920753A2075823C1225060225A774FBC0E07429C0E012277D87
:2026380015811581E4F529F52A75393C753A207582201225060225A7740CC0E0742AC0E0FC
:2026580012277D1581158112239C753920753A3C758220122506E529452A60127530087591
:20267800820212212175823C12216D0225A775300875820312212175823C12216D0225A72D
:2029C000506C6561736520656E74657220636F6D6D616E647320696E206C6F7765726361E9
:2029E00073650A0D000A0D0052657374617274696E6720636C6F636B0A0D0053746F707055
:1E2A0000696E6720636C6F636B0A0D00526573657474696E6720636C6F636B0A0D003F
:20269800741EC0E0742AC0E012277D15811581746AC0E0742AC0E012277D15811581747846
:2026B800C0E0742AC0E012277D15811581748DC0E0742AC0E012277D15811581749FC0E0CE
:1B26D800742AC0E012277D15811581741EC0E0742AC0E012277D158115812253
:202A1E002A2A2A2A2A2A2A2A2A2A2A2A2A2A2A2A2A2A2A2A2A2A2A2A2A2A2A2A2A2A2A2A58
:202A3E002A2A2A2A2A2A2A2A2A2A2A2A2A2A2A2A2A2A2A2A2A2A2A2A2A2A2A2A2A2A2A2A38
:202A5E002A2A2A2A2A2A2A2A2A0A0D00434C4F434B204D454E553A0A0D005B615D2E20430B
:202A7E006C6F636B20726573746172740A0D005B625D2E20436C6F636B2073746F700A0D02
:142A9E00005B635D2E20436C6F636B2072657365740A0D0075
:2026F300AE82AF833099FD8E99C2998E828F832210980280FBAE997F008E828F8322AD827B
:20271300AE83AFF07B007C008D828E838FF01228D3FA602B0DBD00010E8A017A0089828A3B
:2027330083C007C006C005C004C0031226F3D003D004D005D006D0070BBB00CC0C80C98B64
:20275300828C83A322122703E582FEFD3395E0FF8D828F83C0061226F390000D1226F39061
:0A277300000A1226F3D0068E82221F
:06206000E478FFF6D8FD54
:20203E007901E94400601B7A01902AB2780075A0FCE493F2A308B8000205A0D9F4DAF2756F
:02205E00A0FFE1
:20277D00C00A85810AE50A24FDF8868318868218E493A324DB600C2425600512286B80F0D1
:20279D00022883D2D5E493A3C083C082B4731486F0188683188682181228D36054A3122881
:2027BD006B80F5B4630818E61812286B8043B46417E630E74618E6F42401F608E6F43400EA
:2027DD00F6742D12286B8033B4782D868318868218E412285CE58312285BE58312285CE5F9
:2027FD008212285BE58212285C30D505743012286BD082D08302278DB475F6E6FA18E6F904
:20281D00187C107D27122846FF7CE87D03122846C4F5837C647D001228464283E975F00A3A
:20283D0084C445F0F582EF80A97B000BC3E99CF9EA9DFA50F61BE92CF9EA3DFAEB22C45472
:20285D000F700320D51FC2D52490D43440D4C083C082C0F0F582E8C0E01226F3D0E0F8D087
:09287D00F0D082D08322D00A229F
:20288600E50B450C60467A01E50B25E0F50BE50C334012F50CE582950BE583950C40030A07
:2028A60080E6C3E50C13F50CE50B13F50BC3E582950BF5F0E583950C4005F58385F082C3B2
:0D28C600E50C13F50CE50B13F50BDAE12220
:202066007800E84400600A790075A0FCE4F309D8FC7800E84400600C790090FC00E4F0A382
:04208600D8FCD9FAAF
:0D20310075813A122538E582600302202EE9
:1C28D30020F71430F6148883A88220F507E6A88375830022E280F7E49322E02214
:2028EF00C2D5E58330E70DD2D5E4C39582F582E49583F583E50C30E70BE4C3950BF50BE418
:16290F00950CF50C12288630D50BE4C39582F582E49583F5832275
:00000001FF
