:03000000020003F8
:03005C0002005F40
:05005F0012009580FE77
:0E006400AA83E582900000F0A3EAF09000006D
:05007200E0FAA3E0FB31
:090077008A048B051ABAFF011B73
:0D008000900000EAF0A3EBF0EC4D70EB9067
:08008D000000EAF0A3EBF022F1
:0A009500B29190753012006480F6FD
:06003200E478FFF6D8FDA2
:080010007900E94400601B7A4D
:05001800009000A37838
:03001D000275A0C9
:0A00200000E493F2A308B800020503
:08002A00A0D9F4DAF275A0FF81
:080038007800E84400600A7939
:030040000075A0A8
:0600430000E4F309D8FC03
:080049007802E84400600C7924
:0B00510001900000E4F0A3D8FCD9FAF5
:03000300758107FD
:0A00060012009FE582600302005F14
:04009F007582002244
:00000001FF
